:020000040800F2
:100000009813002005010008F128000825200008A9
:10001000C1230008B1060008E1320008000000001A
:10002000000000000000000000000000F5280008AB
:100030000F07000800000000F3280008F928000856
:100040001F0100081F0100081F0100081F01000810
:100050001F0100081F0100081F0100081F01000800
:100060001F0100081F0100081F0100081F010008F0
:10007000B5060008C10600081F0100081F0100089E
:10008000CD060008D90600081F0100081F0100085E
:100090001F0100081F0100081F0100081F010008C0
:1000A0001F010008512A00081F0100081F01000855
:1000B000552B0008612B00088D2B00081F0100083C
:1000C0001F0100081F0100081F0100081F01000890
:1000D0001F010008D1310008DD3100086532000839
:1000E0001F0100081F0100081F010008DFF810D0E1
:1000F00000F0A8FA00480047A9380008AFF30080D4
:10010000981300200648804706480047FEE7FEE7B0
:10011000FEE7FEE7FEE7FEE7FEE7FEE7FEE7FEE7B7
:10012000B3290008ED000008202A04DB203A21FA58
:1001300002F00021704721FA02F3D040C2F1200200
:10014000914008431946704740EA01039B0703D0DA
:1001500009E008C9121F08C0042AFAD203E011F806
:10016000013B00F8013B521EF9D27047D2B201E0C8
:1001700000F8012B491EFBD270470022F6E710B5AC
:1001800013460A4604461946FFF7F0FF204610BD05
:1001900030B505462A460B4612F8010B13F8014B01
:1001A00008B1A042F8D01CB1002802D06D1CF1E7C4
:1001B000284630BD034611F8012B00F8012B002A18
:1001C000F9D118467047F0B480EA0102D40F42001A
:1001D000B2EB410F02D20246084611464A0042D015
:1001E000C30DDDB2C1F3C752AD1A202D35DAC1F30C
:1001F000160141F4000204B15242C5F1200602FA90
:1002000006F12A411044B3EBD05F23D0C4B1012DD5
:10021000A0EBC35009DCF0BC4FF0004202EAC3522D
:10022000DBB200F5000000F081B9400000F1807001
:1002300000EBC350A0F1807040EAD170490009E0A2
:10024000490841EAC071A0EBC35000F50000400826
:1002500000EBC350F0BC00F060B96142012202EB38
:100260004101001BF6E7F0BC704781F00041AAE7AE
:1002700080F00040A7E780EA010210B502F00043D9
:10028000400022D04A001FD0010E01EB1261C0F3E2
:100290005600C2F3560240F4000042F40002A0FBF4
:1002A000022000047F39140400D0401C50EA1240A0
:1002B00001D44000491EC2B20C0604EBD010401C11
:1002C0004008802A02D003E0002010BD20F0010089
:1002D000002900DA0020184310BD30B480EA010282
:1002E00002F0004530F0004221F0004013D090B100
:1002F000C30DD40DC2F31601C0F31600E41A41F485
:10030000000140F400027D34914201D3641C00E0FE
:100310004900002C02DA30BC002070474FF4000086
:100320000023914201D3891A034340084FEA410157
:10033000F7D151B1914202D14FF0004105E002D214
:100340004FF0010101E06FF0010103EBC4502844BC
:1003500030BC00F0E2B82DE9FE4F81EA030404F05E
:10036000004421F0004100944FF0000B23F00043C3
:1003700050EA01045ED052EA03045BD0C3F30A548E
:10038000C1F30A552C44A4F2F3340194A0FB0254A7
:10039000C1F3130141F48011C3F3130343F4801339
:1003A00001FB024400FB034E840A970A44EA81548D
:1003B00047EA8357A4FB076802958D0A05FB07856A
:1003C0004FEA932C04FB0C542705029D4FEA065874
:1003D00047EA1637B5EB08056EEB070C870E920E51
:1003E00047EA811742EA8312A7FB0201B6EB0B0131
:1003F00064EB00042B0D43EA0C335E1844EB1C50F5
:10040000DA465146E7FB0201C5F313044FEA0B330A
:1004100043EA14534FEA0432019C43EA0603A4F171
:100420000C040294009CCDE900B400F0BCF803B0C9
:10043000BDE8F08F00200146F9E79623002211461F
:1004400000F074B80EB540F2334102910021CDE9BD
:1004500000110A460B4600F0A6F803B000BD20F0DC
:100460000040C10DC0F3160040F400007F2901DAFE
:1004700000207047962903DCC1F19601C8407047FF
:10048000963988407047C1F30A5210B5C1F3130181
:1004900040F2FF3341F480119A4201DA002010BD8E
:1004A00040F233439A42A2F2334203DC5242FFF756
:1004B0003BFE10BD904010BD2DE9F05F05460020C9
:1004C00092469B4688460646814640241BE02846C5
:1004D000414647462246FFF727FE53465A46C01A72
:1004E000914110D311461846224600F0BDF82D1A4E
:1004F00067EB01084F4622460120002100F0B4F8C6
:1005000017EB00094E41201EA4F10104DFDC484630
:1005100031462A464346BDE8F09F0029A8BF7047F0
:10052000401C490008BF20F00100704710B4B0FA29
:1005300080FC00FA0CF050EA010404BF10BC7047C4
:1005400049B1CCF1200421FA04F411FA0CF118BFDE
:10055000012121430843A3EB0C01CB1D4FEA0061AD
:100560004FEA102042BF002010BC704700EBC35080
:1005700010440029A4BF10BC7047401C490008BFAC
:1005800020F0010010BC704710B5141E73F1000478
:1005900008DA401C41F1000192185B411A4301D175
:1005A00020F0010010BD2DE9F04D92469B4611B19F
:1005B000B1FA81F202E0B0FA80F22032904600F007
:1005C00053F804460F4640EA0A0041EA0B0153463D
:1005D0005A46084313D0114653EA010019D0C8F116
:1005E00040025046FFF7A0FD05460E4650465946CC
:1005F000424600F039F8084305D0012004E02046C7
:100600003946BDE8F08D0020054346EAE0762C43EC
:1006100037430A986305E40AA0EB08000022FD0AAC
:1006200044EA47540A3002D500200146E9E70105B3
:1006300010196941DDE9084500196941BDE8F04D2F
:10064000A2E70000064C074D06E0E06840F0010319
:1006500094E8070098471034AC42F6D3FFF74AFD00
:10066000183E0008383E0008202A04DB203A00FA31
:1006700002F1002070479140C2F1200320FA03F3F9
:10068000194390407047000030B50C4605000CD06F
:10069000022C0AD90548A11E0288284600F056F807
:1006A000291901F8020D000A487030BD5E000020D3
:1006B000FEE70000014800F0CFB80000B80B0020B2
:1006C000014800F0C9B80000FC0B0020014800F010
:1006D000C3B80000300B0020014800F0BDB8000096
:1006E000740B002030B590F840500124AC40C56B2D
:1006F0006C60046863604368102B036803D09960E2
:100700000068C26030BD9A600068C16030BD70474B
:1007100072B6FEE770B50C46054601F0D7FE2146DD
:10072000284601F063FE2146284601F081FE064876
:100730002146027D284601F03FFF21462846BDE8BC
:10074000704002F047B800004400002010B558B1D6
:10075000084C491E0BD310F8013B5340DBB234F870
:10076000133083EA1222F4E74FF6FF7010BD1046F3
:1007700010BD0000163C000810B590F821100022B2
:10078000022905D00421816380F82020012010BDBA
:1007900001680B6823F00E030B6001680B6823F0FF
:1007A00001030B6090F84030C46B012101FA03F3A0
:1007B000636080F8211080F82020104610BD0000F2
:1007C00010B590F821100024022903D00421816380
:1007D00001243DE001680A6822F00E020A60016807
:1007E0000A6822F001020A601A4A0168914201D1A6
:1007F000012121E0174A1432914201D110211BE05E
:10080000144A2832914201D1891515E0114A3C322F
:10081000914201D189140FE00E4A5032914202D127
:100820004FF4803108E00B4A6432914202D14FF418
:10083000801101E04FF08071064A083A51600121B1
:1008400080F82110002180F82010416B01B1884709
:10085000204610BD080002402DE9F05FC16B0C6816
:1008600001680B68D0F840C0042202FA0CF2494D2E
:10087000DFF824A1494E4A4FDFF828B1DFF828E11C
:1008800022422CD05A072AD50A68920603D40A6855
:1008900022F004020A600168A94201D1042219E091
:1008A000514501D1402215E0B14202D14FF480629E
:1008B00010E0B94202D14FF480420BE0594502D119
:1008C0004FF4802206E0714502D14FF4800201E02E
:1008D0004FF080622F4908394A60C16A3BE04FF00F
:1008E000020808FA0CF818EA040F4FF000094FF05C
:1008F000010235D05FEA837832D50B689B0605D4B8
:100900000B6823F00A030B6080F821200168A942DC
:1009100001D1022219E0514501D1202215E0B14256
:1009200002D14FF4007210E0B94202D14FF40052EC
:100930000BE0594502D14FF4003206E0714502D177
:100940004FF4001201E04FF00072124908394A607A
:1009500080F82090816A00291AD0BDE8F05F08472E
:10096000082505FA0CF5254212D01B0710D50B6897
:1009700023F00E030B6090F84010C36B02FA01F1F4
:100980005960826380F8212080F82090016BE2E7B3
:10099000BDE8F09F080002401C0002403000024009
:1009A00044000240580002406C00024030B528B3B9
:1009B00008C8134914221944B1FBF2F18900C1633C
:1009C00010498163022141771A6843F6F0718A4326
:1009D000D0E900142143D0E902452C4321430469A6
:1009E0002143446921438469214311431960002153
:1009F0004163012242770177084630BD012030BDB6
:100A0000F8FFFDBF0000024070B5044690F82000DA
:100A1000002501280CD0012084F8200094F82160E2
:100A20000020012E06D084F820000225284670BD43
:100A3000022070BD022684F82160A0632068066849
:100A400026F0010606602046FFF74CFEE06A00280B
:100A50002068016802D041F00E0106E021F0040197
:100A600001602068016841F00A01016020680168A6
:100A700041F001010160D9E770B5044600F004F9C6
:100A80000546601C02D004480078044400F0FCF8DD
:100A9000401BA042FAD370BD280000202DE9F84F7A
:100AA000DFF8B8910024A9F1040B23460F2709F1C0
:100AB000040AABF1040EC9E00125A5402A40AA4270
:100AC0007DD1674ED1F804C0ACEB0608B44532D0F6
:100AD00014DCBCF1030F3AD009DCBCF1000F2AD0C2
:100AE000BCF1010F1CD0BCF1020F31D11DE0BCF1F3
:100AF000110F17D0BCF1120F2AD119E0B8F5881FD9
:100B000019D006DCB8F5803F15D0B8F5801F1FD18D
:100B100011E0B8F5001F0ED0B8F5041F18D10AE097
:100B2000CB6815E0CB681B1D12E0CB6808330FE0E3
:100B3000CB680C330CE08B682BB1012B4FF0080312
:100B400003D0456104E0042302E0056100E00023D6
:100B5000FF2A01D8064601E000F104064FEA8405A9
:100B600001D9A5F12005D6F8008007FA05FC28EA8E
:100B70000C0803FA05F548EA0508C6F800804D6838
:100B8000ED0062D5374DAE6946F00106AE61AD6944
:100B900024F0030605F001050095334D06EB050C26
:100BA000DCF80850A607360F07FA06F825EA08050C
:100BB000DFF8B880404503D14FF0000817E044E06B
:100BC000DFF8AC80404502D14FF001080FE0DFF8BC
:100BD000A480404502D14FF0020808E0DFF8988079
:100BE000404502D14FF0030801E04FF0040808FA35
:100BF00006F848EA0508CCF808804D68D9F8006086
:100C0000ED024D4601D5164300E096432E604D6837
:100C1000DAF80060AD02554601D5164300E0964370
:100C20002E604D68DBF80060AD035D4601D51643CC
:100C300000E096432E604D68DEF80060ED037546D7
:100C400001D5164300E096432E60641C0D682A46C9
:100C5000E5407FF431AFBDE8F88F000008040140A3
:100C60000000111000100240000001400008014087
:100C7000000C014000100140001401400AB1016164
:100C800070470904FBE700000148806870470000D6
:100C90002800002002488168027811448160704772
:100CA00028000020074810B5016841F010010160DC
:100CB000032000F075F80F2000F006F800F024F88B
:100CC000002010BD0020024070B50D4D04464FF4C9
:100CD0007A712878B1FBF0F00A490968B1FBF0F0AD
:100CE00000F0DCFA48B9102C07D200222146501E31
:100CF00000F036F800206C6070BD012070BD00006F
:100D000028000020340000200C4808B5816941F01B
:100D100001018161816901F001010091C16941F026
:100D20008051C161C06900F0805000900448416862
:100D300021F0E06141F00071416008BD0010024007
:100D400000000140002809DB00F01F020121914052
:100D50004009800000F1E020C0F800117047000059
:100D6000F0B40E4B1B680C46C3F30223C3F1070516
:100D7000042D00D90425191D072901D2002300E004
:100D8000DB1E012606FA05F1491E214099409E40CE
:100D9000761E16403143F0BC02F0C8BA0CED00E0FC
:100DA000064900F0070208684FF6FF03184040EAC2
:100DB0000220034A10430860704700000CED00E079
:100DC0000000FA052DE9F0470F46050061D0434EBB
:100DD000306800F00700B84209D2306820F0070000
:100DE00038433060306800F00700B84251D12868BD
:100DF0003B4C810712D5400703D5606840F4E060A2
:100E000060602878000703D5606840F46050606037
:100E10006068A96820F0F000084360602878C00787
:100E200028D06868012810D02168022810D08907CE
:100E300000292EDA616821F0030101436160FFF7A8
:100E400023FF804641F288390DE021688903EFE7EE
:100E50008901EDE7FFF718FFA0EB0801494502D92A
:100E60000320BDE8F0876068696800F00C00B0EB13
:100E7000810FEFD1306800F00700B8420BD930681D
:100E800020F0070038433060306800F00700B842B7
:100E900001D00120E5E72878400705D56068E968BA
:100EA00020F4E060084360602878000706D5606899
:100EB000296920F4605040EAC100606000F038F811
:100EC0006168084AC1F30311515CC84006490860D3
:100ED00006480068FFF7F8FE0020C2E70020024045
:100EE00000100240FE3A0008340000202C000020D0
:100EF0000448054900684968044AC1F30221515C6D
:100F0000C840704734000020001002400E3B00082B
:100F10000448054900684968044AC1F3C221515C8C
:100F2000C840704734000020001002400E3B00080B
:100F30000E4A51680E4801F00C03042B11D0082B07
:100F40000FD10C48C1F38343C903C05C0AD5516873
:100F5000084AC1F34041921E515C054A5043B0FB20
:100F6000F1F0704704494843704700000010024008
:100F700000127A00EE3A000800093D002DE9F84F12
:100F8000040070D02078C04DC00749D06868C0F315
:100F90008100012807D06868C0F38100022809D1C8
:100FA0006868C00306D52868800339D560680028C2
:100FB000E7D035E06068B0F5803F0BD010B1B0F5F8
:100FC000A02F11D0286820F480302860286820F4F1
:100FD000802002E0286840F480302860606890B18A
:100FE000FFF752FE06460AE0286840F48020286099
:100FF000F0E700BFFFF748FE801B642873D828681D
:101000008003F7D50CE0FFF73FFE064605E000BF82
:10101000FFF73AFE801B6428F0D828688003F7D4D5
:1010200020789A4E80074FF001094FF0000839D51B
:10103000686810F00C0F07D06868C0F381000228C0
:1010400009D16868C00306D42868800714D52069D0
:10105000012808D110E02069B0B1C6F80090FFF770
:1010600013FE074605E00AE1FFF70EFEC01B02284B
:10107000C4D828688007F7D52868616920F0F8008F
:1010800040EAC10028600DE0C6F80080FFF7FCFDD3
:10109000074604E0FFF7F8FDC01B022823D82868A4
:1010A0008007F7D4207800072CD57948A169D9B1F9
:1010B000C0F80090FFF7E8FD074604E0FFF7E4FD05
:1010C000C01B02280FD8686A8007F7D571484FF413
:1010D000FA510068B0FBF1F0009000BF0098411E8B
:1010E0000091FAD20EE080E0C0F80080FFF7CCFD5E
:1010F000074604E0FFF7C8FDC01B022875D8686AE0
:101100008007F7D42078400760D5E8690027C00041
:1011100008D4E86940F08050E861E869012700F0F0
:10112000805000905C480168C90513D4016883466B
:1011300041F480710160FFF7A7FD824606E000BF21
:10114000FFF7A2FDA0EB0A0064284ED8DBF80000F0
:10115000C005F5D5E06801280AD008B1052813D0EC
:10116000286A20F001002862286A20F0040002E0CA
:10117000286A40F001002862E06841F2883B98B19B
:10118000FFF782FD82460BE0286A40F004002862E7
:10119000EEE700BFFFF778FDA0EB0A0159455AD8EA
:1011A000286A8007F6D50CE0FFF76EFD824605E061
:1011B000FFF76AFDA0EB0A0159454CD8286A800761
:1011C000F6D41FB1E86920F08050E861E06988B387
:1011D0006968C1F38101022944D00228C6F8608001
:1011E00004D0FFF751FD044638E034E0FFF74CFD32
:1011F000074604E0FFF748FDC01B02282BD82868EB
:101200008001F7D4206AB0F5803F05D16868A168F5
:1012100020F4003008436860D4E908010843696895
:1012200021F4741108436860C6F86090FFF72CFD44
:10123000044606E025E000BFFFF726FD001B02285C
:1012400009D828688001F7D51BE000BFFFF71CFD17
:10125000001B022802D90320BDE8F88F286880010E
:10126000F4D40EE00128F7D06868226A00F48031D7
:10127000914204D1616A00F47010884201D00120CB
:10128000EAE70020E8E700000010024000004242C8
:1012900080044242340000200070004010B5401E1F
:1012A000B0F1807F01D3012010BD4FF0E0246061D8
:1012B0000F21601702F03AF80020A061072020619A
:1012C000002010BD7047704710B590F83C20012AEF
:1012D00022D0012280F83C20CA688C6822F4407237
:1012E00022434C6822F4806222430C6822F400629C
:1012F00022430C6922F4805222434C6922F40052AA
:101300002243C969002322F480420A4301684A64E7
:1013100080F83C30002010BD022010BD70B590F860
:101320003C20012A26D0012480F83C40022280F88B
:101330003D2003685A689D6822F070060A683243AF
:101340005A600D4B02689A4208D0B2F1804F05D026
:101350000A4B9A4202D00A4B9A4204D1496825F0BE
:1013600080031943916080F83D40002180F83C10D3
:10137000084670BD022070BD002C014000040040F2
:101380000008004010B5040003D094F83D0010B1EF
:1013900007E0012010BD002084F83C00204600F04A
:1013A0001FF8022084F83D00211D206801F0F4FBA5
:1013B000012084F8460084F83E0084F83F0084F859
:1013C000400084F8410084F8420084F8430084F827
:1013D000440084F8450084F83D00002010BD000062
:1013E00000B585B0002100910191029103912A4A34
:1013F00001682A4891420ED1816941F400618161FE
:101400008069002200F40060049011461920FFF763
:10141000A7FC19202AE0224A91422BD1C16941F050
:101420000201C161C16901F002010491816941F0C9
:10143000080181618069694600F00800049020205D
:1014400000900220019003901648FFF727FB1648F2
:10145000416821F4406141F0E06141F40061416084
:10146000002211461D20FFF77BFC1D20FFF76AFCC0
:1014700005B000BD0D4A9142FAD1C16941F00401A5
:10148000C161C069002200F00400049011461E20D2
:10149000FFF766FC1E20E9E7002C01400010024027
:1014A00000040040000C0140000001400008004022
:1014B00090F83D10012901D001207047022180F8E9
:1014C0003D1000680B49884208D0B0F1804F05D02C
:1014D0000949884202D00949884204D1816801F053
:1014E0000701062903D0016841F0010101600020D5
:1014F00070470000002C014000040040000800403C
:1015000090F83D10012901D001207047022180F898
:101510003D100168CA6842F00102CA6000680B49C8
:10152000884208D0B0F1804F05D00949884202D0E6
:101530000849884204D1816801F00701062903D0D7
:10154000016841F00101016000207047002C01405A
:1015500000040040000800400168CA6822F001024F
:10156000CA6001680A6A41F211131A4207D10A6A75
:101570009B101A4203D10A6822F001020A6001217D
:1015800080F83D100020704770B5044690F83C008C
:101590000025012817D0012684F83C60022084F839
:1015A0003D002068826822F0770222F47F42826048
:1015B0000868502838D00DDC20284FD005DC90B3C7
:1015C000102811D14AE0022070BD302846D04028B2
:1015D0000AD13BE060282FD070280DD0B0F5805F95
:1015E00003D0B0F5005F12D0012584F83D600020E3
:1015F00084F83C00284670BDCB68D1E90121206801
:1016000001F013FB2068816841F0770109E0CB68A5
:10161000D1E90121206801F008FB2068816841F4CC
:1016200080418160E1E719E0CA684968206801F0FB
:10163000B1FB5021206806E0CA684968206801F0C3
:10164000BAFB6021206801F0FAFACEE7CA6849685F
:10165000206801F09FFB40212068F4E722680146E2
:101660001046F0E770472DE9F04104460068C6686F
:1016700005694FF00007A90713D5B10711D5F91E69
:10168000016101202077206880698007204602D010
:10169000FFF7E8FF04E000F0B3F8204600F060F93F
:1016A0002777680716D5700714D521686FF00400F6
:1016B0000861022020772068806910F4407F20466E
:1016C00002D0FFF7CFFF04E000F09AF8204600F0C8
:1016D00047F92777280715D5300713D521686FF00C
:1016E00008000861042020772068C0698007204630
:1016F00002D0FFF7B7FF04E000F082F8204600F0C8
:101700002FF92777E80616D5F00614D521686FF073
:1017100010000861082020772068C06910F4407F1D
:10172000204602D0FFF79EFF04E000F069F8204653
:1017300000F016F92777E80708D0F00706D02168EF
:101740006FF001000861204600F05AF9280608D51C
:10175000300606D521686FF0800008612046FFF74B
:10176000B1FD680608D5700606D521686FF0400007
:101770000861204600F058F9A8060AD5B00608D539
:1017800021686FF0200008612046BDE8F041FFF7B6
:101790009ABDBDE8F081000010B586B0002100912F
:1017A000019102910391134C0368134902221348DB
:1017B000A3420CD18B6943F004038B6189690392C6
:1017C00001F0040104918115CDE900120DE0B3F19F
:1017D000804F0DD18B6943F004038B6189690092BE
:1017E00001F004010192CDE903216946FFF756F9A2
:1017F00006B010BD002C014000100240000801405E
:10180000704770B5044690F83C0000260D4601284C
:101810000FD0012084F83C006AB1042A1DD0082AA8
:101820002FD00C2A3FD00126002084F83C003046FF
:1018300070BD022070BD206801F00AFA206881693D
:1018400041F0080181612068816921F00401816112
:10185000206881692A69114311E0206801F020FAAB
:101860002068816941F4006181612068816921F407
:1018700080618161206881692A6941EA0221816170
:10188000D2E7206801F038FA2068C16941F0080108
:10189000C1612068C16921F00401C1612068C1698A
:1018A0002A69114311E0206801F052FA2068C169E9
:1018B00041F40061C1612068C16921F48061C161A6
:1018C0002068C1692A6941EA0221C161ACE710B50B
:1018D000040003D094F83D0010B107E0012010BDD2
:1018E000002084F83C00204600F01EF8022084F816
:1018F0003D00211D206801F04FF9012084F84600C9
:1019000084F83E0084F83F0084F8400084F84100E9
:1019100084F8420084F8430084F8440084F84500C9
:1019200084F83D00002010BD08B50068B0F1804F7C
:1019300012D10A48C16941F00101C161C0690022A8
:1019400000F00100009011461C20FFF709FABDE8E5
:1019500008401C20FFF7F6B908BD00000010024047
:101960007047000010B50446022249B104290ED088
:10197000082913D094F84100012816D0012010BD89
:1019800094F83E000128F9D184F83E200FE094F845
:101990003F000128F2D184F83F2008E094F840008D
:1019A0000128EBD184F8402001E084F84120012295
:1019B000206801F02DF90F492068884203D1426C5C
:1019C00042F4004242642068884208D0B0F1804F5F
:1019D00005D00949884202D00849884204D181686B
:1019E00001F00701062903D0016841F001010160FF
:1019F000002010BD002C0140000400400008004001
:101A000000680649884207D10548018841F4004131
:101A100001800448FFF7A0BD7047000000080040A7
:101A200006000020100A00207047704710B50446D9
:101A30000068406994F84110C0F3C010212911D109
:101A400080B12068143050E8001F21F0800140E888
:101A50000012002AF5D1A06B08B1FEF78DFE2046DA
:101A600001F087FA2068406994F84210C0F38010B2
:101A7000222911D180B12068143050E8001F21F0D4
:101A8000400140E80012002AF5D1E06B08B1FEF7F2
:101A900073FE204601F046FA002010BD704700009A
:101AA000F8B5016804460868CA684B6910F00F0F62
:101AB0004FF0000559D003F0010602F49077374348
:101AC00065D0C10705D0D10503D5616C41F0010196
:101AD0006164410705D5D90703D0616C41F002016B
:101AE0006164810705D5D90703D0616C41F0040119
:101AF0006164010707D502F02001314303D0616C16
:101B000041F008016164616C00293AD0800604D577
:101B1000900602D5204601F03AFA20684069616CCF
:101B2000C0F38010090700D460B3204601F0FAF931
:101B300020684069400621D52068143050E8001F15
:101B400021F0400140E80012002AF5D1E06BA8B175
:101B50006D494163E06BFEF733FE002811D0E06B66
:101B6000416B01B0BDE8F040084783060FD59306EE
:101B70000DD52046BDE8F84001F009BA2046FFF730
:101B80008DFFF8BD2046FFF789FF6564F8BD266B21
:101B90002023012E7CD1C6067AD5D60678D50868D2
:101BA0004868009048694FF00206400640D5E16B56
:101BB000086840680004000CE8D0A28D8242E5D994
:101BC000E085886920282DD020680C3050E8001F5F
:101BD00021F4807140E80012002AF5D12068143009
:101BE00050E8001F21F0010140E80012002AF5D161
:101BF0002068143050E8001F21F0400140E8001236
:101C0000002AF5D184F84230256320680C3050E872
:101C1000001F21F0100140E80012002AF5D1E06B0E
:101C2000FEF7AAFD6663A08DE18D401A81B22AE01D
:101C3000A08DE18D401A81B2E08D0028A6D0002948
:101C4000A4D022680C3252E8000F20F4907042E8D1
:101C50000007002FF5D12068143050E8002F22F043
:101C6000010240E80027002FF5D184F842302563B7
:101C700020680C3050E8002F22F0100240E80023CA
:101C8000002BF5D166632046FFF7CFFEF8BDFFE7D6
:101C900005062BD5150629D594F841002128F5D144
:101CA000A068B0F5805F01D12069B0B1206A411C05
:101CB0002162216800784860E08C401E0004000C1E
:101CC000E084E3D12068C16821F08001C160206810
:101CD000C16841F04001C160D8E7206A0088C0F3C4
:101CE00008004860206A801C2062E5E74006CDD5E8
:101CF0005006CBD5CA68204622F04002CA6084F85C
:101D0000413000F08DF9C1E7DB2D000870B504000B
:101D100004D094F84100002510B106E0012070BD08
:101D200084F84050204600F023F8242084F8410035
:101D30002068C16821F40051C160204601F088F993
:101D40002068016921F4904101612068416921F016
:101D50002A0141612068C16841F40051C160656495
:101D6000202084F8410084F842006563002070BDA3
:101D70002DE9F04F85B0002500950195029503955A
:101D8000044603687248714F02210322DFF8C481C0
:101D90000615BB4225D1836943F48043836183697F
:101DA00003F480430493836943F0040383618069EF
:101DB000039200F0040004900802CDE90001694696
:101DC0004046FEF76BFECDE9006569464046029548
:101DD000FEF764FE002211462520FEF7C1FF2520F4
:101DE0005AE0DFF874C180274FF0200B4FF0100A43
:101DF0004FF44059634554D1C36943F40033C36180
:101E0000C36903F400330493836943F004038361DB
:101E10008069039200F0040004900420CDE90001E1
:101E2000694646464046FEF739FE0820CDE90005E2
:101E3000694630460295FEF731FE494E4748B8469E
:101E4000C6E90005C6E90257C6F81C903561C6E927
:101E5000055B4F463046FEF7A9FD08B1FEF758FC7A
:101E6000E66374623E4E3D4844361430C6E902587B
:101E700035617561C6E9000AC6E906573046FEF7C6
:101E800095FD08B1FEF744FCA6630022114626200A
:101E90007462FEF765FF2620FEF754FF05B0BDE82B
:101EA000F08FDFF8C0C06345F8D1C36943F48023E5
:101EB000C361C36903F480230493836943F0080377
:101EC00083618069CDE9006100F00800CDE903205D
:101ED000254E69463046FEF7E1FDF014CDE90005D8
:101EE000694630460295FEF7D9FD1D4E1B488836DF
:101EF0005038C6E9025735617561C6E9000AC6E97E
:101F00000659B8464F463046FEF750FD08B1FEF779
:101F1000FFFBA6637462124E1048CC363C38C6E90B
:101F20000005C6E90258F7613561C6E9055B304630
:101F3000FEF73CFD08B1FEF7EBFBE663002211461D
:101F400027207462FEF70CFF2720A5E70038014028
:101F50000010024000080140004400406C000240B4
:101F6000300B002000480040000C014090F8423047
:101F7000202B01D00220704721B11AB10023036346
:101F800001F0C2B80120704790F84230202B01D0F8
:101F90000220704721B11AB10023036301F0FCB89D
:101FA000012070477047704770B5044690F84100B3
:101FB000202801D0022070BD49B342B32162A2841F
:101FC000E28400206064212384F84130A56B114B2A
:101FD000AB62A56B104BEB62A56B104B2B63A36B35
:101FE0005863256813462A1DA06BFEF70DFD216876
:101FF0006FF0400008602068143050E8001F41F086
:10200000800140E80012002AF5D1002070BD0120B7
:1020100070BD0000D92E00081B2F0008EB2D000812
:1020200070477047FEE70000154808B5416941F068
:10203000010141614069002200F001000090114659
:102040000C20FEF78DFE0C20FEF77CFE00221146D0
:102050000D20FEF785FE0D20FEF774FE00221146CE
:102060001020FEF77DFE1020FEF76CFE00221146C8
:102070001120FEF775FEBDE808401120FEF762BE94
:102080000010024070B586B000241C4800940194F2
:1020900002940394816941F020018161816901F01A
:1020A00020010491816941F004018161816901F09D
:1020B00004010491816941F0080181618069012274
:1020C00000F008000E4ED503049029463046FEF776
:1020D000D5FD01200095CDE9010403200390694658
:1020E0003046FEF7DBFC0820CDE9000469460548D0
:1020F0000294FEF7D3FC06B070BD00000010024051
:1021000000080140000C014010B596B000240F9467
:1021100010941194129413941C2108A81494FEF79F
:102120002CF820216846FEF728F829482749016045
:1021300041F61F41C0E9011442F20F71C0E90314D6
:1021400044618461FFF71EF908B1FEF7E1FA4FF42C
:1021500080500F900FA91E48FFF716FA08B1FEF73E
:10216000D7FA1B48FFF7B3FB08B1FEF7D1FA139477
:1021700013A917481494FFF7D1F808B1FEF7C8FA6D
:102180006020CDE908040A940B940C940D9400226D
:1021900008A90F480E94FFF734FB08B1FEF7B8FA10
:1021A00000944FF40050CDE904400294019403944C
:1021B000694607480794FFF787F808B1FEF7A8FAC1
:1021C0000348FFF7E9FA16B010BD0000002C0140EB
:1021D0003809002010B58AB0002407941C216846F5
:1021E0000894FDF7CAFF17484FF08041016041F69F
:1021F0001F41C0E9011440F2E731C0E903148461D2
:10220000FFF765FB08B1FEF783FA079407A90D48AD
:102210000894FFF783F808B1FEF77AFA602000907F
:102220004FF4FA70CDE9010404226946054804948C
:10223000FFF7E7FA08B1FEF76BFA0248FFF7ACFACE
:102240000AB010BD8009002010B586B000241748E0
:10225000009401940294039404941349059401603A
:1022600041F61F41C0E9011440F2E731C0E903140F
:102270008461FFF787F808B1FEF74AFA4FF48050FF
:10228000009069460948FFF77FF908B1FEF740FA68
:10229000049404A905480594FFF740F8002801D0EC
:1022A000FEF736FA06B010BD00040040C809002051
:1022B00010B586B00024174800940194029403944A
:1022C000049413490594016041F61F41C0E90114CB
:1022D0006321C0E9031480218161FFF753F808B13D
:1022E000FEF716FA4FF48050009069460948FFF750
:1022F0004BF908B1FEF70CFA049404A905480594BB
:10230000FFF70CF8002801D0FEF702FA06B010BD66
:1023100000080040100A00200C4810B50A4901606E
:102320004FF416514160002181600C22C160C0E968
:1023300004128161C161FFF7E9FC002803D0BDE808
:102340001040FEF7E5B910BD00380140580A0020E2
:102350000C4810B50A4901604FF4E1314160002199
:1023600081600C22C160C0E904128161C161FFF784
:10237000CDFC002803D0BDE81040FEF7C9B910BD60
:1023800000440040A00A00200C4810B50A49016032
:102390004FF4E1314160002181600C22C160C0E94D
:1023A00004128161C161FFF7B1FC002803D0BDE8D0
:1023B0001040FEF7ADB910BD00480040E80A00200B
:1023C000FEE703460DE002782A2A03D0202A01D333
:1023D0007A2A01D9FF2070472C2A01D1491EC9B29F
:1023E000401C0029EFD1C01AC0B2704738B50A4668
:1023F00005460EA11046FDF7CBFE04460921FFF766
:10240000E0FFFF2804D02044694600F011FA686616
:1024100007212046FFF7D5FFFF2805D02044694655
:1024200000F006FA85F8500038BD0000474741002B
:10243000F8B50A46064624A11046FDF7A9FE054652
:102440000221FFF7BEFFFF2805D02844694600F0AF
:10245000EFF986F85D000024E01CC1B22846FFF7C2
:10246000B0FFFF280AD02844694600F0E1F931198D
:10247000641CE4B281F851000C2CEDD30F212846E6
:10248000FFF79FFFFF2805D02844694600F0D0F9E8
:10249000A6F85E0010212846FFF793FFFF2805D01D
:1024A0002844694600F0C4F9A6F8600011212846C6
:1024B000FFF787FFFF2805D02844694600F0B8F9E8
:1024C000A6F86200F8BD0000475341002DE9F84F1F
:1024D0000C4682464FF0000835A12046FDF758FE15
:1024E0000546C07903213038C7B22846FFF769FF97
:1024F000FF2805D02844694600F09AF98AF80000C0
:10250000002651E02AA12046FDF742FE04460025A0
:102510004FF0040B0BEB8500C1B22046FFF751FFD3
:10252000FF283ED02044694600F082F908EB88027B
:1025300002EB0A0989F80100052000EB8500C1B211
:102540002046FFF73EFFFF282BD02044694600F0CD
:102550006FF989F80200062000EB8500C1B2204621
:10256000FFF72FFFFF281CD02044694600F060F9D8
:10257000A9F80300072000EB8500C1B22046FFF751
:1025800020FFFF280DD02044694600F051F989F85A
:1025900005006D1C08F10100EDB200F0FF08042DEC
:1025A000B8D3761CF6B2641CBE42ABD3BDE8F88F3C
:1025B00024475047535600002DE9F8430A46044685
:1025C00080A11046FDF7E4FD05460121FFF7F9FE65
:1025D00042F210764FF06408FF281ED02844694666
:1025E00000F026F907469DF800100A2000F018F9BF
:1025F000B7FBF0F1B1FBF6F084F841004046B1FBC7
:10260000F0F2B2FBF0F308FB132284F84220B1FB96
:10261000F8F208FB121084F8430003212846FFF764
:10262000D0FEDFF8A491FF283DD02844694600F091
:10263000FFF807469DF80000801CC1B20A2000F098
:10264000EFF8B7FBF0F044F8450F9DF80000801C50
:10265000C1B20A2000F0E4F8B7FBF0F100FB117002
:10266000FDF7EBFE07469DF80000C0F10500C1B282
:102670000A2000F0D5F8FDF7E0FE3946FDF7FBFD36
:102680004946FDF72AFE074605210A2000F0C8F852
:1026900021684843FDF7D1FE3946FDF794FDFDF76B
:1026A000DEFE44F8450904212846FFF78AFEFF288C
:1026B00002D0285C84F8490005212846FFF781FEF6
:1026C000FF283DD02844694600F0B2F807469DF83F
:1026D0000000801CC1B20A2000F0A2F8B7FBF0F0A5
:1026E00044F84A0F9DF80000801CC1B20A2000F097
:1026F00097F8B7FBF0F100FB1170FDF79EFE07465F
:102700009DF80000C0F10500C1B20A2000F088F871
:10271000FDF793FE3946FDF7AEFD4946FDF7DDFDB9
:10272000074605210A2000F07BF821684843FDF7A1
:1027300084FE3946FDF747FDFDF791FE44F84A094E
:1027400006212846FFF73DFEFF2802D0285C84F8CA
:102750004E0007212846FFF734FEFF2810D02844FA
:10276000694600F065F800EB80004000FDF76AFE66
:10277000164A174BFDF7EFFDFDF785FEA4F868003C
:1027800009212846FFF71DFEFF2818D02844694676
:1027900000F04EF8B0FBF6F184F840104146B0FB73
:1027A000F1F2B2FBF1F308FB132284F83F20B0FBF7
:1027B000F8F208FB120000F5FA60A4F83D00BDE84D
:1027C000F8830000524D4300000070426F1283C036
:1027D000CAA1FD3F38B50A4604460FA11046FDF7D1
:1027E000D7FC05460721FFF7ECFDFF2813D028444E
:1027F000694600F01DF8A4F868009DF80000032861
:1028000009D2C0F10300C1B20A2000F009F834F87F
:10281000681F4843208038BD244750565447000065
:102820000246012000E05043491EC9B2FBD2704766
:102830002DE9F04F4FF0000A8B468046D1465546B1
:102840005446564601782D2902D146F00206401C16
:1028500001782C2908D02A2906D02E290AD030390F
:102860000A290AD300252C46B00701D508F1010832
:10287000002718E046F00106401CF10702D0641C56
:10288000E4B201E06D1CEDB2401CDBE7E81B401E2A
:10289000C1B20A20FFF7C4FF18F80710303900FB57
:1028A00001AA7F1CFFB2AF42F0D3052C00D905244A
:1028B0008BF8004000270EE0E01B401EC1B20A204A
:1028C000FFF7AEFFEA1902EB08014978303900FB47
:1028D00001997F1CFFB2A742EED321460A20FFF7E1
:1028E0009FFF0AFB0090B10700D54042BDE8F08F82
:1028F000FEE770477047000010B5FEF7CBF91348AC
:102900000188491C01804188491C41808188491CFB
:102910008180C188491CC1800189491C018141898C
:10292000491C41818189491C8181C189491CC1811E
:10293000018A491C018206480078012804D1BDE8BB
:102940001040024800F036B810BD0000080D00200D
:102950000000002030B58FB028216846FDF70DFC3F
:1029600014210AA8FDF709FC01210804CDE9001093
:102970000024029402250491CDE907504FF4E010A1
:1029800009906846FEF7FAFA08B172B6FEE70F2022
:10299000CDE90A054FF48060CDE90C4002210AA878
:1029A0000E94FEF70FFA002801D072B6FEE70FB0C2
:1029B00030BD704770B504460088002500B1258001
:1029C0006088022800D36580A088052800D3A580F0
:1029D000E0880A2800D3E5802089142800D32581C7
:1029E0006089322802D300F011F86581A08964283B
:1029F00000D3A581E089B0F5FA7F00D3E581208A74
:102A0000B0F57A7F00D3258270BD000010B50B4968
:102A10000B4800F005FF094801F020F8094A074972
:102A2000094800F0C5FF18210448FDF72DFEBDE858
:102A30001040182201490548FFF7B6BA0E090020D8
:102A4000A40800201C0D002026090020E80A002010
:102A50003EB52348FEF707FE22480068C16A4908D0
:102A60008163214CE0683B2802DA401CE0600FE003
:102A70000020E06021693B2902DA491C216107E05E
:102A800020616169172902DA491C616100E0606117
:102A9000D4E9031015A28DE80700134A23A11C32C4
:102AA0002748636900F02EFC2549A1F16400FDF779
:102AB00081FB2348643800F089FE0246A0600A4882
:102AC00020A1001D00F01EFC1D4920A000F00AFC02
:102AD00003B00549BDE83040091D1DA000F002BC4F
:102AE0003809002080090020040000202E30302CFE
:102AF000412C323233372E3439363437342C4E2C85
:102B000031313335362E3038393531352C452C308E
:102B10002E302C3232352E352C3233303532302CAB
:102B2000322E332C572C412A00000000257325300B
:102B30003264253032642530326425730000000091
:102B4000A40C00202530325800000000257300003E
:102B500025730A000148FEF786BD000080090020A9
:102B600010B50848FEF77FFD074890F84410491C4F
:102B7000C9B280F84410092902D9092180F844100B
:102B800010BD0000C8090020A40800200148FEF77D
:102B90006ABD0000100A0020F0B50268194B1A4CFB
:102BA0001A4D4FF08047984205D0B84203D0A0425A
:102BB00001D0A84203D122F070064A6832439842FD
:102BC00005D0B84203D0A04201D0A84203D122F4DC
:102BD0004074CA6822434C6922F08002224302609A
:102BE0008A68C2620A688262984201D109690163F7
:102BF000012141610169C90703D0016921F0010187
:102C00000161F0BD002C01400004004000080040BC
:102C100010B501F01F030121046A99408C4304623E
:102C2000016A9A401143016210BD10B5846842EAFE
:102C3000032224F47F440A432243826010BD826849
:102C400022F070020A4342F00701816070470000E1
:102C500030B5036A026A22F00102026242688469A6
:102C600024F073050C682C4323F002058B682B437A
:102C70000A4DA8420BD123F00805CB6822F440721C
:102C80002B434D6923F0040315438A692A434260AC
:102C9000846149684163036230BD0000002C01403B
:102CA00030B5026A036A23F0100303624368846943
:102CB0000D6824F4E64444EA05248D6822F02002DD
:102CC00042EA05120B4DA8420ED1CD6822F08002D7
:102CD00042EA05124D6923F4406343EA85038D6996
:102CE00022F0400243EA85034360846149688163BE
:102CF000026230BD002C014030B5036A026A22F442
:102D0000807202624268C46923F4007324F0730580
:102D10000C682C438D6843EA05230C4DA8420ED164
:102D2000CD6823F4006343EA05234D6922F4405241
:102D300042EA05128D6923F4806342EA051242607B
:102D4000C4614968C163036230BD0000002C0140CA
:102D500030B5046A026A22F4805202624268C36992
:102D60000D6823F4E64343EA05238D6824F40054F8
:102D700044EA0534064DA84204D14D6922F480424C
:102D800042EA85124260C36149680164046230BD51
:102D9000002C014010B5036A046A24F001040462A7
:102DA000846924F0F00444EA021423F00A020A437E
:102DB0008461026210BD10B5036A046A24F0100435
:102DC0000462846923F0A00324F4704444EA0232CC
:102DD00043EA01118261016210BD10B5406A002111
:102DE000C185C184FEF75AFE10BD70B5446A2068E3
:102DF000406994F84110C0F3C0100025212904D186
:102E000018B1E584204600F0B4F82068406994F8D1
:102E10004210C0F38010222904D118B1E585204664
:102E200000F080F8606C40F0100060642046FEF70F
:102E300035FE70BD10B50146406A096809684FF05B
:102E4000000289062ED4C28501680C3151E8003F8A
:102E500023F4807341E80034002CF5D1016814316B
:102E600051E8003F23F0010341E80034002CF5D184
:102E70000168143151E8003F23F0400341E8003479
:102E8000002CF5D1202180F84210016B012909D1D5
:102E900001680C3151E8003F23F0100341E8003491
:102EA000002CF5D14263016B012902D0FFF77AF8BB
:102EB00010BD818DFEF7B9FD10BD10B5406A01212E
:102EC0004163016B012902D0FFF76DF810BD818DC0
:102ED0004908FEF7AAFD10BD10B50146406A096811
:102EE0000968890616D40021C1840168143151E8AB
:102EF000002F22F0800241E80023002BF5D1016869
:102F00000C3151E8002F42F0400241E80023002B31
:102F1000F5D110BDFFF784F810BD10B5406AFFF77A
:102F200080F810BD01680C3151E8002F22F4907236
:102F300041E80023002BF5D10168143151E8002F3E
:102F400022F0010241E80023002BF5D1016B012999
:102F500009D101680C3151E8002F22F0100241E83C
:102F60000023002BF5D1202180F8421000210163BD
:102F7000704701680C3151E8002F22F0C00241E88F
:102F80000023002BF5D1202180F84110704708B5AF
:102F900090F84210222901D0022008BD82684FF427
:102FA00080539A4201D1016921B1816A9A421BD0B2
:102FB0004AB10AE00268816A5268C2F308020A80D4
:102FC000816A891C08E0026972B10268526802F0E5
:102FD0007F020A70816A491C8162C18D491E090401
:102FE000090CC18503D01BE002685268F1E7016853
:102FF000CA6822F02002CA600168CA6822F480729E
:10300000CA6001684A6922F001024A61202180F801
:10301000421000214163026B012A03D0FEF7C2FF78
:10302000002008BD016301680C3151E8002F22F037
:10303000100241E80023002BF5D101680A68D2068E
:1030400002D50A6849680091818DFEF7EEFCE7E73A
:1030500070B5044600680169E26821F440511143EB
:1030600001612169A0680843616908432168CA6851
:1030700041F20C639A430243CA6020684169A26925
:1030800021F44071114341611E492068884202D1F8
:10309000FDF73EFF01E0FDF72BFF00EBC00101EB68
:1030A0000012606864218000B2FBF0F3B3FBF1F31F
:1030B0006FF018067343B2FBF0F5B2FBF0F605EBC8
:1030C0008305322303EB0515B5FBF1F5B6FBF1F6ED
:1030D00005F0F00505EB0615B2FBF0F6B2FBF0F0DB
:1030E000B0FBF1F06FF01802504306EB800003EBE9
:1030F0000010B0FBF1F0216800F00F002844886058
:1031000070BD00000038014038B5816204468285F8
:10311000002013466064222284F84220E56B1B4A9B
:10312000AA62E56B1A4AEA62E56B1A4A2A63E26B05
:1031300050630A462168E06B091DFDF765FC2068B5
:10314000016840680090206948B120680C3050E860
:10315000001F41F4807140E80012002AF5D1206878
:10316000143050E8001F41F0010140E80012002A2D
:10317000F5D12068143050E8001F41F0400140E8CC
:103180000012002AF5D1002038BD0000352E0008BD
:10319000BB2E0008EB2D000881628285C2850021CC
:1031A0004164222180F84210016921B10168CA6896
:1031B00042F48072CA6001684A6942F001024A61C1
:1031C0000068C16841F02001C16000207047000024
:1031D0000148FEF765BC0000580A00202DE9FF41B8
:1031E0001D48FEF75DFC1C4800680168C943C9061C
:1031F00030D401684068194D00240090285D55289E
:103200001DD129194878AA2819D110226846FCF73F
:103210009BFF9DF80E609DF80F7010216846FDF72A
:1032200033FA9DF80E00B04209D19DF80F00B84264
:1032300005D1102269460A48FCF786FF02E0641CAB
:10324000402CDBDD04B04022BDE8F04103490248D8
:10325000FEF78CBEBDE8FF81A00A002064080020B4
:1032600026090020F8B51A48FEF71AFC184C206809
:103270000168C943C90627D4016800254068009049
:103280002046FEF7D3FB2068C16841F02001C160F1
:103290004FF4006632460F492046FEF767FE20686D
:1032A00040680D4CC7B2608801040DD4B0420CD206
:1032B0000A4909684D6210B90848FEF721F9054925
:1032C00060880F54401C6080F8BD40F40040FAE76D
:1032D000E80A00206400002004000020100A0020FA
:1032E000FEE700000FB4054B10B503A9044A02988D
:1032F00000F03CF810BC5DF814FB00000938000831
:10330000600000200FB4084B10B504A902AA03986E
:1033100000F02CF8044602A9002000F052FA2046E2
:1033200010BC5DF814FB0000C33700080907090E44
:10333000002804DB00F1E02080F80014704700F062
:103340000F0000F1E02080F8141D704702E008C86B
:10335000121F08C1002AFAD170477047002001E00F
:1033600001C1121F002AFBD1704700002DE9FF4F59
:103370008DB00F460546002606E025280BD0DDE976
:103380000F1290476D1C761C28780028F5D111B0DB
:103390003046BDE8F08F0024A246A1460122E9494B
:1033A00000E0044315F8013F203B02FA03F0084215
:1033B000F7D128782A2810D06FF02F022878A0F1B2
:1033C0003001092914D80AEB8A0102EB410144F0CB
:1033D000020400EB010A6D1CF0E701CF5FEA000A6E
:1033E00003D544F40054CAF1000A44F002046D1CF1
:1033F00028782E2817D115F8010F44F004042A2844
:103400000ED06FF02F022878A0F1300109290AD8D8
:1034100009EB890102EB410100EB01096D1CF2E7A8
:1034200057F8049B6D1C28786C280FD006DC4C28BC
:1034300017D068280DD06A2814D104E0742810D061
:103440007A280FD10DE044F400140AE044F480140B
:1034500001E044F440146978814202D104F58014FB
:103460006D1C6D1C28786E281ED00CDC632830D0B3
:1034700004DC00288BD0582811D19FE0642867D045
:1034800069280CD164E073282DD004DC6F2872D039
:10349000702804D194E075286ED078286DD0DDE9CD
:1034A0000F129047761C4BE1C4F30250022806D05D
:1034B000032809D0042801CF09D0066040E101CFDC
:1034C000F117C0E900613BE101CF068038E10670E9
:1034D00036E117F8040B8DF8000000208DF801008C
:1034E000EB46012003E057F804BB4FF0FF306107C3
:1034F0004FF0000102D40DE008F101018846494572
:103500000FDA8045F8DB1BF808100029F4D108E039
:1035100008F1010188468142FADB1BF808100029F6
:10352000F6D1DDE90F23AAEB08008146214600F021
:1035300031F9304400EB080604E0DDE90F121BF816
:10354000010B9047B8F10108F7D221464846F2E056
:103550000A21C4F302524FF0000B0891022A04D052
:1035600001CFC117032A09D00AE0FF1D27F0070782
:10357000F7E8020108E02CE01EE01FE000B2C117EE
:10358000042A01D140B2C117021E71F1000206DA0D
:103590000023D0EB030063EB01012D2202E02205A2
:1035A00004D52B228DF82420012203E0E20701D06C
:1035B0002022F7E7904653E00A210BE0102109E0B2
:1035C00010214FF0000B44F004044FF0080908915B
:1035D00003E008214FF0000B0891C4F30252022AC5
:1035E00004D001CF0021032A06D006E0FF1D27F0FA
:1035F0000707F7E8020103E080B2042A00D1C0B255
:103600004FF0000822072BD52A78702A07D0DDF862
:1036100020C08CF0100C5CEA0B0C05D00EE04022B0
:103620008DF82420012208E050EA010306D030235F
:103630008DF824308DF8252002229046089B83F0D7
:10364000080353EA0B030BD150EA010201D16207D0
:1036500006D530228DF824204FF00108A9F1010988
:103660002A78582A04D038A20B9208AA0A920BE0B2
:103670003AA2F9E75B46089AFCF71EFF0B9B9B5C9E
:103680000A9A521E0A92137050EA0102F2D10A9865
:10369000ADEB000000F1200B600702D524F480346C
:1036A00001E04FF00109D94502DDA9EB0B0000E074
:1036B000002000EB0B0141440890AAEB010AE00353
:1036C00006D4DDE90F232146504600F063F8064496
:1036D0004FF0000908E009A911F80900DDE90F120F
:1036E000904709F10109761CC145F4DBE0030CD5D4
:1036F000DDE90F232146504600F04CF8064404E073
:10370000DDE90F1230209047761C0899481E08907A
:103710000029F5DC08E00A980A990078491C0A910A
:10372000DDE90F129047761CBBF10001ABF1010BF4
:10373000F1DC21465046DDE90F2300F019F806447C
:103740006D1C21E60928010030313233343536371B
:1037500038396162636465660000000030313233DD
:10376000343536373839414243444546000000007D
:103770002DE9F041044600251E461746880404D46E
:1037800005E039462020B0476D1C641EF9D5284657
:10379000BDE8F0812DE9F041044600251E46904623
:1037A000C80301D5302700E02027880404D505E0B0
:1037B00041463846B0476D1C641EF9D52846BDE821
:1037C000F0810A68531C0B601070704730B54FF0E1
:1037D000FF3490B10B4942780A7002228A6103E0FB
:1037E0000D786B400B70521C835C2A2B01D0002B90
:1037F000F6D18A61805C2A2801D0204630BD087845
:1038000030BD00000400002004490A685206FCD5BF
:10381000024AC1B2121D1160704700000038014019
:1038200030B54AF655220A80B0F83D301D4AD3B172
:1038300090F83F30BBB190F84030A3B190F84150C0
:103840008DB190F8424074B190F843305BB19570FF
:10385000D47013710C79A34202D0002380F8443055
:1038600090F84430537193788B70D378CB70137980
:103870000B7153794B71D0F8453063B1C2F8063003
:10388000C1F80630D0F84A0040B1C2F80A0000BFC3
:10389000C1F80A0030BDD2F80630F1E7D2F80A00CC
:1038A000F6E70000880F0020FDF7FCF9FFF752F85B
:1038B000FEF7E8FBFEF7B8FBFEF766FDFEF72CFD12
:1038C000FEF788FCFEF720FCFEF7F2FCFEF740FD59
:1038D000FEF7BAFC2C480068C16841F02001C160C5
:1038E00040222A492848FEF741FB40222749264822
:1038F000FEF74AFB26480068C16841F02001C1601C
:103900004FF40064224623492148FEF72FFB22464C
:1039100020491F48FEF738FB1F48FDF7F1FD1E4800
:10392000FDF7C6FD00211C48FEF71CF81A4D0024C7
:10393000286844631948FDF7BBFD04211748FEF7CA
:1039400011F81648006884631548FDF7D9FD15483D
:10395000FDF7D6FD42F21070FDF78EF812490120F6
:1039600008702868C16A49084163104D288800041E
:1039700005D508492C8001F50460FCF7CBFE012039
:10398000FDF77AF8F2E70000A00A002064080020A2
:10399000E80A002064000020380900208009002087
:1039A000C8090020100A00200000002006000020A6
:1039B0002DE9F0438378447940F265456B4304EB8D
:1039C0004314C3784FF416756B430579DFF888907C
:1039D00005EB850503EB4503E61899F8005099F8C7
:1039E000014000232D1B4FF01F0C32E0EF181F3752
:1039F00097FBFCF80CFB187707F0FF0808EB88072B
:103A000052F82770BF1B00D57F42012F1FDC4FFAF1
:103A100088F35D1C19D003EB830502EB850550F894
:103A2000067FD9F804C055F80A6FA7EB0C07F61B00
:103A300041F80E6F4068D9F808606D68801B281A3D
:103A40004860E01A401E89F80100BDE8F0835B1C65
:103A5000DBB2A342CAD3F8E7380000202DE9F041D9
:103A60000188A1F52A42553A3AD18178427940F24B
:103A70006543594302EB4112C1784FF41673594321
:103A80000379184C03EB830301EB430123460A44FB
:103A9000667815491B781F255EB103F11E06B6FB3B
:103AA000F5F705FB176606EB860651F82660B2426D
:103AB00016D003EB830341F8232001EB8303014677
:103AC0000E22181DFCF740FB2078401CB0FBF5F1DE
:103AD00005FB1100207060781F2801D2401C607027
:103AE000BDE8F081380000201C0D00200102020317
:103AF0000405060708090A0B0C0D0E0F1010000034
:103B0000000000000000010203040607080900008D
:103B1000000001020304005EBCE2613FDD83C29C41
:103B20007E20A3FD1F419DC3217FFCA2401E5F019B
:103B3000E3BD3E6082DC237D9FC1421CFEA0E1BF4D
:103B40005D0380DE3C62BEE0025CDF81633D7C227F
:103B5000C09E1D43A1FF4618FAA427799BC584DAAD
:103B60003866E5BB5907DB856739BAE4065819475B
:103B7000A5FB7826C49A653BD987045AB8E6A7F90D
:103B80001B45C6987A24F8A6441A99C7257B3A643F
:103B900086D85B05E7B98CD2306EEDB3510F4E106D
:103BA000F2AC2F7193CD114FADF3702ECC92D38D1B
:103BB0006F31B2EC0E50AFF1134DCE90722C6D33CD
:103BC000D18F0C52B0EE326C8ED0530DEFB1F0AEFF
:103BD0004C1291CF2D73CA947628ABF5174908562D
:103BE000B4EA6937D58B5709EBB536688AD495CBDB
:103BF0002977F4AA4816E9B7550B88D6346A2B758D
:103C000097C94A14F6A8742AC896154BA9F7B6E8BE
:103C10000A54D7896B350000891112239B32244640
:103C2000AD573665BF74488CC19D5AAFD3BE6CCAC0
:103C3000E5DB7EE9F7F88110080193331A22A556D7
:103C40002C47B7753E64C99C408DDBBF52AEEDDAA0
:103C500064CBFFF976E802218B30100299132667B6
:103C6000AF763444BD554AADC3BC588ED19F6EEB80
:103C7000E7FA7CC8F5D983310A2091121803A77797
:103C80002E66B5543C45CBBD42ACD99E508FEFFB60
:103C900066EAFDD874C904428D5316619F702004F2
:103CA000A9153227BB364CCEC5DF5EEDD7FC688840
:103CB000E1997AABF3BA85520C4397711E60A11457
:103CC0002805B3373A26CDDE44CFDFFD56ECE99820
:103CD0006089FBBB72AA06638F7214409D51222536
:103CE000AB343006B9174EEFC7FE5CCCD5DD6AA900
:103CF000E3B8788AF19B87730E6295501C41A33517
:103D00002A24B1163807CFFF46EEDDDC54CDEBB9DF
:103D100062A8F99A708B088481951AA793B62CC271
:103D2000A5D33EE1B7F04008C919522BDB3A644EE7
:103D3000ED5F766DFF7C899400859BB712A6ADD2AE
:103D400024C3BFF136E0C1184809D33B5A2AE55EC7
:103D50006C4FF77D7E6C0AA583B4188691972EE38D
:103D6000A7F23CC0B5D14229CB38500AD91B666FA7
:103D7000EF7E744CFD5D8BB502A499961087AFF36E
:103D800026E2BDD034C1C3394A28D11A580BE77F87
:103D90006E6EF55C7C4D0CC685D71EE597F42880C9
:103DA000A1913AA3B3B2444ACD5B5669DF78600C67
:103DB000E91D722FFB3E8DD604C79FF516E4A9902E
:103DC0002081BBB332A2C55A4C4BD7795E68E11C47
:103DD000680DF33F7A2E0EE787F61CC495D52AA10D
:103DE000A3B03882B193466BCF7A5448DD59622D27
:103DF000EB3C700EF91F8FF706E69DD414C5ABB1EE
:103E000022A0B9923083C77B4E6AD5585C49E33D06
:103E10006A2CF11E780F0000383E000800000020D8
:103E2000640000004C3300089C3E00086400002041
:103E3000341300005C3300080000000000000000A4
:103E40000000000000000000000000000000000072
:103E50000000000000000000244750524D432C0099
:103E600001000000100000000000000000127A00B5
:103E70000000000037B93F00A14EBC00F4F5F6F792
:103E8000F8F9FAFBFCFDFEF1000102030405060748
:0C3E900008090A0B0C00FFFF00000000F6
:04000005080000ED02
:00000001FF
