:020000040800F2
:10000000F01100209D01000855270008611F00081D
:1000100029220008FB060008B52F00080000000098
:100020000000000000000000000000005927000848
:100030003F07000800000000572700085B27000862
:10004000B7010008B7010008B7010008B7010008B0
:10005000B7010008B7010008B7010008B7010008A0
:10006000B7010008B7010008B7010008B701000890
:10007000FD06000809070008B7010008B7010008DD
:10008000B7010008B7010008B7010008B701000870
:10009000B7010008B7010008B7010008B701000860
:1000A000B7010008C1270008B7010008B701000820
:1000B000C5280008B7010008D1280008B7010008CA
:1000C000B7010008B7010008B7010008B701000830
:1000D000B7010008512F0008B70100085D2F000884
:1000E000B7010008B7010008B701000800F002F8E6
:1000F00000F045F80AA090E8000C82448344AAF17D
:100100000107DA4501D100F03AF8AFF2090EBAE87A
:100110000F0013F0010F18BFFB1A43F0010318473B
:10012000A4370000C4370000103A24BF78C878C153
:10013000FAD8520724BF30C830C144BF04680C60ED
:10014000704700000023002400250026103A28BF35
:1001500078C1FBD8520728BF30C148BF0B60704739
:10016000642900F09F80782900F0D880732900F07E
:100170008682002070471FB51FBD10B510BD00F06E
:1001800082FA1146FFF7F7FF02F04AFF00F0A0FAEB
:1001900003B4FFF7F2FF03BC00F0A8FA0948804758
:1001A00009480047FEE7FEE7FEE7FEE7FEE7FEE759
:1001B000FEE7FEE7FEE7FEE704480549054A064B71
:1001C00070470000BD270008ED000008F00B00207C
:1001D000F0110020F00D0020F00D00200FB41CB530
:1001E000074B06AA7B4469460090059800F01DFA6B
:1001F0000020694600F02CFA1CBC5DF814FB0000DE
:100200006904000070B5044685690068C10601D51F
:10021000302600E02026C00707D070BDD4E90121B8
:1002200030469047206A401C20626D1EF6D570BD96
:1002300070B5044685690078C00707D170BDD4E960
:10024000012120209047206A401C20626D1EF6D5B7
:1002500070BD70B50C460546012A05D02878800689
:1002600000D5EA69002302E0012305E05B1C93420C
:1002700002D2E05C0028F9D1A869E618C01AA8618A
:10028000286A184428622846FFF7BCFF04E0D5E935
:10029000012114F8010B9047B442F8D32846FFF728
:1002A000C7FF70BD2DE9F04106460024106875298E
:1002B000314616A510D0AFF30080002802DA404284
:1002C00013A507E031688A0701D512A502E04907A6
:1002D00004D511A5012401E0AFF3008000210A221A
:1002E00006F1240709E0B0FBF2FCB0FBF2F302FBDD
:1002F0001C00303078541846491C0028F3D123469E
:100300002A463046BDE8F04100F030B90000000058
:100310002D0000002B0000002000000070B50446F6
:100320000D4621461068AFF300802188090502D5EB
:100330000F4A7A4402E00E4A7A440E32002104F158
:10034000240305E000F00F060009965D5E54491C89
:100350000028F7D120780023000704D5702D02D0A3
:1003600009B1022311322046BDE8704000F0FEB80A
:10037000523500002DE9F05F894604464FF0000A2F
:10038000DFF824B1FB44C0F820A02046E16888478C
:1003900000287DD0252806D0D4E901219047206A85
:1003A000401C2062F1E700255F462046E16888474F
:1003B0002028064607DB312E05D2B81910F8200C8C
:1003C00008B10543F1E7A80701D525F00405C4F8F5
:1003D0001CA00027C4F818A02A2E09D0304602F02D
:1003E000FAFD38B304EB8708303EC8F8186019E00E
:1003F00059F8041B204604EB87029161E1688847A5
:10040000012F064618D1E069002820DA25F02005E2
:100410001DE0D8F8180000EB800006EB40003038F3
:10042000C8F818002046E1688847064602F0D3FD68
:100430000028EED1012F0AD02E2E08D12046E168E7
:1004400088477F1C0646022F45F02005C4DBA069C3
:10045000002803DA404245F00105A061E80701D019
:1004600025F01005A6B1A6F14100192802D82036C2
:1004700045F400654A463146204625604D46FFF763
:100480006FFE60B1012807D0ED1D25F0070000E0E8
:1004900007E000F1080978E705F1040975E730463F
:1004A0007AE7206ABDE8F09F2835000030B50546A0
:1004B0000B462A4613F8014B12F8010B08B1A04273
:1004C000F8D01CB1002802D06D1CF1E7284630BDE1
:1004D00040EA0103024630B59B0710D14FF00134CA
:1004E00000E008C208C91D1B9D4315EAC41FF8D0CF
:1004F00013F0FF0102F8011B0DD01B0AF8E711F8F9
:10050000013B002B02F8013B05D011F8013B002B09
:1005100002F8013BF3D130BD4FF0000200B51346A5
:1005200094469646203922BFA0E80C50A0E80C5013
:10053000B1F12001BFF4F7AF090728BFA0E80C50C4
:1005400048BF0CC05DF804EB890028BF40F8042BBD
:1005500008BF704748BF20F8022B11F0804F18BF2A
:1005600000F8012B70477047704770472DE9F0473E
:100570000D4699469246044600F124080168880613
:1005800004D5E06921F01001216000E00120A842BB
:1005900001DD471B00E00027A1697A1902EB090081
:1005A000081AA0612078C00602D42046FFF72AFE70
:1005B000002608E0D4E901211AF806009047206AD5
:1005C000401C761C20624E45F4DB2078C0060AD51C
:1005D0002046FFF717FE06E0D4E9012130209047BE
:1005E000206A401C2062381EA7F10107F4DC07E0F6
:1005F000D4E9012118F805009047206A401C2062C8
:10060000281EA5F10105F3DC2046FFF711FE207836
:10061000000602D50220BDE8F0870120FBE70000BC
:1006200001694A1C02610878704700B58FB0CDE9B6
:1006300001310021059105497944CDE903101146A6
:100640006846FFF797FE0FB000BD0000E5FFFFFF13
:100650000A6802F8010B0A60704710B5436913B1CC
:10066000AFF3008001E0FFF7F4FD012010BD127828
:1006700000F124010A7000224A700122EDE711689E
:100680004FF0FF32E9E7754600F02CF8AE46050062
:100690006946534620F00700854618B020B5FFF79D
:1006A0008BFDBDE820404FF000064FF000074FF0F3
:1006B00000084FF0000B21F00701AC46ACE8C00980
:1006C000ACE8C009ACE8C009ACE8C0098D46704789
:1006D00010B50446AFF300802046BDE81040FFF798
:1006E00057BD000000487047900B002001491820BA
:1006F000ABBEFEE7260002007047FEE7014800F0AF
:10070000D9B80000240A0020014800F0D3B8000046
:10071000680A002030B590F840500124AC40C56B09
:100720006C60046863604368102B036803D09960B1
:100730000068C26030BD9A600068C16030BD70471B
:1007400072B6FEE770B50D46044601F0F3FD29468A
:10075000204601F07FFD2946204601F09DFD1A4804
:100760002946027D204601F05BFE2946204601F025
:1007700063FF16484AF655210180626C00F10E01B4
:10078000E2B1C1F8022000BFC0F80220D4F849202D
:10079000BAB1C1F8062000BFC0F80620D4F8632023
:1007A0000AB1C1F80A20D1F80A10C0F80A10BDE851
:1007B00070400E220549064801F094BBD1F8022092
:1007C000E2E7D1F80620E7E734000020740B0020B0
:1007D000DC09002010B590F821100022022905D074
:1007E0000421816380F82020012010BD01680B687E
:1007F00023F00E030B6001680B6823F001030B600C
:1008000090F84030C46B012101FA03F3636080F873
:10081000211080F82020104610BD000010B590F87F
:1008200021100024022903D00421816301243DE02A
:1008300001680A6822F00E020A6001680A6822F064
:1008400001020A601A4A0168914201D1012121E0A6
:10085000174A1432914201D110211BE0144A283268
:10086000914201D1891515E0114A3C32914201D1E2
:1008700089140FE00E4A5032914202D14FF4803178
:1008800008E00B4A6432914202D14FF4801101E03A
:100890004FF08071064A083A5160012180F821101A
:1008A000002180F82010416B01B18847204610BD1F
:1008B000080002402DE9F05FC16B0C6801680B680D
:1008C000D0F840C0042202FA0CF2494DDFF824A10E
:1008D000494E4A4FDFF828B1DFF828E122422CD0F8
:1008E0005A072AD50A68920603D40A6822F004023D
:1008F0000A600168A94201D1042219E0514501D1E1
:10090000402215E0B14202D14FF4806210E0B942BA
:1009100002D14FF480420BE0594502D14FF48022BE
:1009200006E0714502D14FF4800201E04FF0806291
:100930002F4908394A60C16A3BE04FF0020808FAC3
:100940000CF818EA040F4FF000094FF0010235D0FF
:100950005FEA837832D50B689B0605D40B6823F0D9
:100960000A030B6080F821200168A94201D102220C
:1009700019E0514501D1202215E0B14202D14FF4D6
:10098000007210E0B94202D14FF400520BE0594519
:1009900002D14FF4003206E0714502D14FF400124B
:1009A00001E04FF00072124908394A6080F8209047
:1009B000816A00291AD0BDE8F05F0847082505FACA
:1009C0000CF5254212D01B0710D50B6823F00E033F
:1009D0000B6090F84010C36B02FA01F1596082631A
:1009E00080F8212080F82090016BE2E7BDE8F09FBD
:1009F000080002401C000240300002404400024057
:100A0000580002406C00024030B528B308C81349B2
:100A100014221944B1FBF2F18900C16310498163CA
:100A2000022141771A6843F6F0718A43D0E9001435
:100A30002143D0E902452C43214304692143446901
:100A4000214384692143114319600021416301223C
:100A500042770177084630BD012030BDF8FFFDBF69
:100A60000000024070B5044690F8200000250128DF
:100A70000CD0012084F8200094F821600020012E81
:100A800006D084F820000225284670BD022070BDE3
:100A9000022684F82160A0632068066826F001061B
:100AA00006602046FFF736FEE06A002820680168ED
:100AB00002D041F00E0106E021F00401016020683F
:100AC000016841F00A0101602068016841F00101FC
:100AD0000160D9E770B5044600F0FEF80546601CD9
:100AE00002D004480078044400F0F6F8401BA0420D
:100AF000FAD370BD240000202DE9F84FDFF8B8913B
:100B00000024A9F1040B23460F2709F1040AABF1D5
:100B1000040EC9E00125A5402A40AA427DD1674EB6
:100B2000D1F804C0ACEB0608B44532D014DCBCF1FB
:100B3000030F3AD009DCBCF1000F2AD0BCF1010F41
:100B40001CD0BCF1020F31D11DE0BCF1110F17D048
:100B5000BCF1120F2AD119E0B8F5881F19D006DCB4
:100B6000B8F5803F15D0B8F5801F1FD111E0B8F55A
:100B7000001F0ED0B8F5041F18D10AE0CB6815E0AD
:100B8000CB681B1D12E0CB6808330FE0CB680C3339
:100B90000CE08B682BB1012B4FF0080303D04561AB
:100BA00004E0042302E0056100E00023FF2A01D8ED
:100BB000064601E000F104064FEA840501D9A5F1DB
:100BC0002005D6F8008007FA05FC28EA0C0803FA8D
:100BD00005F548EA0508C6F800804D68ED0062D5C5
:100BE000374DAE6946F00106AE61AD6924F00306EB
:100BF00005F001050095334D06EB050CDCF80850B7
:100C0000A607360F07FA06F825EA0805DFF8B880C8
:100C1000404503D14FF0000817E044E0DFF8AC8016
:100C2000404502D14FF001080FE0DFF8A4804045B5
:100C300002D14FF0020808E0DFF89880404502D169
:100C40004FF0030801E04FF0040808FA06F848EAFC
:100C50000508CCF808804D68D9F80060ED024D46D3
:100C600001D5164300E096432E604D68DAF8006027
:100C7000AD02554601D5164300E096432E604D68FF
:100C8000DBF80060AD035D4601D5164300E09643F6
:100C90002E604D68DEF80060ED03754601D5164301
:100CA00000E096432E60641C0D682A46E5407FF400
:100CB00031AFBDE8F88F00000804014000001110BA
:100CC000001002400000014000080140000C0140FB
:100CD0000010014000140140014880687047000086
:100CE0002400002002488168027811448160704726
:100CF00024000020074810B5016841F01001016090
:100D0000032000F075F80F2000F006F800F024F83A
:100D1000002010BD0020024070B50D4D04464FF478
:100D20007A712878B1FBF0F00A490968B1FBF0F05C
:100D300000F0DCFA48B9102C07D200222146501EE0
:100D400000F036F800206C6070BD012070BD00001E
:100D500024000020300000200C4808B5816941F0D3
:100D600001018161816901F001010091C16941F0D6
:100D70008051C161C06900F0805000900448416812
:100D800021F0E06141F00071416008BD00100240B7
:100D900000000140002809DB00F01F020121914002
:100DA0004009800000F1E020C0F800117047000009
:100DB000F0B40E4B1B680C46C3F30223C3F10705C6
:100DC000042D00D90425191D072901D2002300E0B4
:100DD000DB1E012606FA05F1491E214099409E407E
:100DE000761E16403143F0BC02F0E5B80CED00E091
:100DF000064900F0070208684FF6FF03184040EA72
:100E00000220034A10430860704700000CED00E028
:100E10000000FA052DE9F0470F46050061D0434E6A
:100E2000306800F00700B84209D2306820F00700AF
:100E300038433060306800F00700B84251D128686C
:100E40003B4C810712D5400703D5606840F4E06051
:100E500060602878000703D5606840F460506060E7
:100E60006068A96820F0F000084360602878C00737
:100E700028D06868012810D02168022810D089077E
:100E800000292EDA616821F0030101436160FFF758
:100E900023FF804641F288390DE021688903EFE79E
:100EA0008901EDE7FFF718FFA0EB0801494502D9DA
:100EB0000320BDE8F0876068696800F00C00B0EBC3
:100EC000810FEFD1306800F00700B8420BD93068CD
:100ED00020F0070038433060306800F00700B84267
:100EE00001D00120E5E72878400705D56068E9686A
:100EF00020F4E060084360602878000706D5606849
:100F0000296920F4605040EAC100606000F038F8C0
:100F10006168084AC1F30311515CC8400649086082
:100F200006480068FFF7F8FE0020C2E700200240F4
:100F30000010024070380008300000202800002017
:100F40000448054900684968044AC1F30221515C1C
:100F5000C840704730000020001002408038000870
:100F60000448054900684968044AC1F3C221515C3C
:100F7000C840704730000020001002408038000850
:100F80000E4A51680E4801F00C03042B11D0082BB7
:100F90000FD10C48C1F38343C903C05C0AD5516823
:100FA000084AC1F34041921E515C054A5043B0FBD0
:100FB000F1F07047044948437047000000100240B8
:100FC00000127A006038000800093D002DE9F84F52
:100FD000040070D02078C04DC00749D06868C0F3C5
:100FE0008100012807D06868C0F38100022809D178
:100FF0006868C00306D52868800339D56068002872
:10100000E7D035E06068B0F5803F0BD010B1B0F5A7
:10101000A02F11D0286820F480302860286820F4A0
:10102000802002E0286840F480302860606890B139
:10103000FFF752FE06460AE0286840F48020286048
:10104000F0E700BFFFF748FE801B642873D82868CC
:101050008003F7D50CE0FFF73FFE064605E000BF32
:10106000FFF73AFE801B6428F0D828688003F7D485
:1010700020789A4E80074FF001094FF0000839D5CB
:10108000686810F00C0F07D06868C0F38100022870
:1010900009D16868C00306D42868800714D5206980
:1010A000012808D110E02069B0B1C6F80090FFF720
:1010B00013FE074605E00AE1FFF70EFEC01B0228FB
:1010C000C4D828688007F7D52868616920F0F8003F
:1010D00040EAC10028600DE0C6F80080FFF7FCFD83
:1010E000074604E0FFF7F8FDC01B022823D8286854
:1010F0008007F7D4207800072CD57948A169D9B1A9
:10110000C0F80090FFF7E8FD074604E0FFF7E4FDB4
:10111000C01B02280FD8686A8007F7D571484FF4C2
:10112000FA510068B0FBF1F0009000BF0098411E3A
:101130000091FAD20EE080E0C0F80080FFF7CCFD0D
:10114000074604E0FFF7C8FDC01B022875D8686A8F
:101150008007F7D42078400760D5E8690027C000F1
:1011600008D4E86940F08050E861E869012700F0A0
:10117000805000905C480168C90513D4016883461B
:1011800041F480710160FFF7A7FD824606E000BFD1
:10119000FFF7A2FDA0EB0A0064284ED8DBF80000A0
:1011A000C005F5D5E06801280AD008B1052813D09C
:1011B000286A20F001002862286A20F0040002E07A
:1011C000286A40F001002862E06841F2883B98B14B
:1011D000FFF782FD82460BE0286A40F00400286297
:1011E000EEE700BFFFF778FDA0EB0A0159455AD89A
:1011F000286A8007F6D50CE0FFF76EFD824605E011
:10120000FFF76AFDA0EB0A0159454CD8286A800710
:10121000F6D41FB1E86920F08050E861E06988B336
:101220006968C1F38101022944D00228C6F86080B0
:1012300004D0FFF751FD044638E034E0FFF74CFDE1
:10124000074604E0FFF748FDC01B02282BD828689A
:101250008001F7D4206AB0F5803F05D16868A168A5
:1012600020F4003008436860D4E908010843696845
:1012700021F4741108436860C6F86090FFF72CFDF4
:10128000044606E025E000BFFFF726FD001B02280C
:1012900009D828688001F7D51BE000BFFFF71CFDC7
:1012A000001B022802D90320BDE8F88F28688001BE
:1012B000F4D40EE00128F7D06868226A00F4803187
:1012C000914204D1616A00F47010884201D001207B
:1012D000EAE70020E8E70000001002400000424278
:1012E00080044242300000200070004010B5401ED3
:1012F000B0F1807F01D3012010BD4FF0E024606188
:101300000F21601701F057FE0020A0610720206127
:10131000002010BD7047704710B590F83C20012A9E
:1013200022D0012280F83C20CA688C6822F44072E6
:1013300022434C6822F4806222430C6822F400624B
:1013400022430C6922F4805222434C6922F4005259
:101350002243C969002322F480420A4301684A6497
:1013600080F83C30002010BD022010BD70B590F810
:101370003C20012A26D0012480F83C40022280F83B
:101380003D2003685A689D6822F070060A6832435F
:101390005A600D4B02689A4208D0B2F1804F05D0D6
:1013A0000A4B9A4202D00A4B9A4204D1496825F06E
:1013B00080031943916080F83D40002180F83C1083
:1013C000084670BD022070BD002C014000040040A2
:1013D0000008004010B5040003D094F83D0010B19F
:1013E00007E0012010BD002084F83C00204600F0FA
:1013F0001FF8022084F83D00211D206801F06EFADC
:10140000012084F8460084F83E0084F83F0084F808
:10141000400084F8410084F8420084F8430084F8D6
:10142000440084F8450084F83D00002010BD000011
:1014300008B5154A0168154891420ED1816941F4F9
:10144000006181618069002200F400600090114613
:101450001920FFF7ADFC192010E00D4A914211D17F
:10146000C16941F00401C161C069002200F00400BB
:10147000009011461E20FFF79BFC1E20BDE808408F
:10148000FFF788BC08BD0000002C0140001002409E
:101490000008004090F83D10012901D0012070475C
:1014A000022180F83D1000680B49884208D0B0F155
:1014B000804F05D00949884202D00949884204D1A9
:1014C000816801F00701062903D0016841F001019C
:1014D0000160002070470000002C01400004004023
:1014E0000008004090F83D10012901D0012070470C
:1014F000022180F83D100168CA6842F00102CA600A
:1015000000680B49884208D0B0F1804F05D00949E6
:10151000884202D00849884204D1816801F007015D
:10152000062903D0016841F00101016000207047E5
:10153000002C014000040040000800400168CA6817
:1015400022F00102CA6001680A6A41F211131A42CC
:1015500007D10A6A9B101A4203D10A6822F00102DD
:101560000A60012180F83D100020704770B50446E4
:1015700090F83C000025012817D0012684F83C6033
:10158000022084F83D002068826822F0770222F46D
:101590007F4282600868502838D00DDC20284FD068
:1015A00005DC90B3102811D14AE0022070BD30282C
:1015B00046D040280AD13BE060282FD070280DD0BB
:1015C000B0F5805F03D0B0F5005F12D0012584F83C
:1015D0003D60002084F83C00284670BDCB68D1E90E
:1015E0000121206801F0C3F92068816841F077018A
:1015F00009E0CB68D1E90121206801F0B8F9206841
:10160000816841F480418160E1E719E0CA68496876
:10161000206801F061FA5021206806E0CA68496834
:10162000206801F06AFA6021206801F0AAF9CEE78B
:10163000CA684968206801F04FFA40212068F4E741
:10164000226801461046F0E770472DE9F041044654
:101650000068C66805694FF00007A90713D5B107F0
:1016600011D5F91E0161012020772068806980076B
:10167000204602D0FFF7E8FF04E000F0B3F8204670
:1016800000F060F92777680716D5700714D5216830
:101690006FF004000861022020772068806910F450
:1016A000407F204602D0FFF7CFFF04E000F09AF819
:1016B000204600F047F92777280715D5300713D5BE
:1016C00021686FF008000861042020772068C06955
:1016D0008007204602D0FFF7B7FF04E000F082F851
:1016E000204600F02FF92777E80616D5F00614D526
:1016F00021686FF010000861082020772068C06919
:1017000010F4407F204602D0FFF79EFF04E000F077
:1017100069F8204600F016F92777E80708D0F007A7
:1017200006D021686FF001000861204600F05AF9E8
:10173000280608D5300606D521686FF080000861BC
:101740002046FFF7E7FD680608D5700606D5216834
:101750006FF040000861204600F058F9A8060AD54D
:10176000B00608D521686FF0200008612046BDE86A
:10177000F041FFF7D0BDBDE8F081000010B586B0A4
:1017800000210091019102910391134C03681349C8
:1017900002221348A3420CD18B6943F004038B61EE
:1017A0008969039201F0040104918115CDE90012C9
:1017B0000DE0B3F1804F0DD18B6943F004038B61D1
:1017C0008969009201F004010192CDE90321694683
:1017D000FFF792F906B010BD002C01400010024046
:1017E00000080140704770B5044690F83C000026A0
:1017F0000D4601280FD0012084F83C006AB1042A6C
:101800001DD0082A2FD00C2A3FD00126002084F8B2
:101810003C00304670BD022070BD206801F0BAF86F
:101820002068816941F0080181612068816921F0A7
:1018300004018161206881692A69114311E02068EF
:1018400001F0D0F82068816941F40061816120686D
:10185000816921F480618161206881692A6941EA96
:1018600002218161D2E7206801F0E8F82068C169AF
:1018700041F00801C1612068C16921F00401C16122
:101880002068C1692A69114311E0206801F002F95A
:101890002068C16941F40061C1612068C16921F417
:1018A0008061C1612068C1692A6941EA0221C16180
:1018B000ACE710B5040003D094F83D0010B107E088
:1018C000012010BD002084F83C00204600F01EF8E6
:1018D000022084F83D00211D206800F0FFFF012058
:1018E00084F8460084F83E0084F83F0084F8400005
:1018F00084F8410084F8420084F8430084F84400EE
:1019000084F8450084F83D00002010BD08B500684B
:10191000B0F1804F12D10A48C16941F00101C161A3
:10192000C069002200F00100009011461C20FFF762
:101930003FFABDE808401C20FFF72CBA08BD0000A4
:10194000001002407047000010B50446022249B161
:1019500004290ED0082913D094F84100012816D08C
:10196000012010BD94F83E000128F9D184F83E20F2
:101970000FE094F83F000128F2D184F83F2008E0FE
:1019800094F840000128EBD184F8402001E084F86D
:1019900041200122206800F0DDFF0F4920688842C5
:1019A00003D1426C42F4004242642068884208D06D
:1019B000B0F1804F05D00949884202D008498842D9
:1019C00004D1816801F00701062903D0016841F0C4
:1019D00001010160002010BD002C01400004004006
:1019E0000008004000680649884207D10548018880
:1019F00041F4004101800448FFF7A0BD704700009A
:101A000000080040020000204C0900207047704789
:101A100070470000F8B5016804460868CA684B6959
:101A200010F00F0F4FF0000559D003F0010602F43B
:101A30009077374365D0C10705D0D10503D5616CD8
:101A400041F001016164410705D5D90703D0616CFC
:101A500041F002016164810705D5D90703D0616CAB
:101A600041F004016164010707D502F02001314310
:101A700003D0616C41F008016164616C00293AD0C7
:101A8000800604D5900602D5204601F022F9206890
:101A90004069616CC0F38010090700D460B3204630
:101AA00001F0E2F820684069400621D52068143032
:101AB00050E8001F21F0400140E80012002AF5D153
:101AC000E06BA8B16D494163E06BFEF7A7FE00280B
:101AD00011D0E06B416B01B0BDE8F04008478306D0
:101AE0000FD593060DD52046BDE8F84001F0F1B8BA
:101AF0002046FFF78DFFF8BD2046FFF789FF65649C
:101B0000F8BD266B2023012E7CD1C6067AD5D606D9
:101B100078D508684868009048694FF0020640068A
:101B200040D5E16B086840680004000CE8D0A28D45
:101B30008242E5D9E085886920282DD020680C30C4
:101B400050E8001F21F4807140E80012002AF5D10E
:101B50002068143050E8001F21F0010140E8001215
:101B6000002AF5D12068143050E8001F21F0400110
:101B700040E80012002AF5D184F84230256320683D
:101B80000C3050E8001F21F0100140E80012002A3C
:101B9000F5D1E06BFEF71EFE6663A08DE18D401A65
:101BA00081B22AE0A08DE18D401A81B2E08D00283B
:101BB000A6D00029A4D022680C3252E8000F20F4ED
:101BC000907042E80007002FF5D12068143050E8EB
:101BD000002F22F0010240E80027002FF5D184F801
:101BE0004230256320680C3050E8002F22F01002AC
:101BF00040E80023002BF5D166632046FFF707FF7E
:101C0000F8BDFFE705062BD5150629D594F8410048
:101C10002128F5D1A068B0F5805F01D12069B0B16D
:101C2000206A411C2162216800784860E08C401ED7
:101C30000004000CE084E3D12068C16821F0800139
:101C4000C1602068C16841F04001C160D8E7206AE6
:101C50000088C0F308004860206A801C2062E5E725
:101C60004006CDD55006CBD5CA68204622F04002AA
:101C7000CA6084F8413000F071F9C1E71F2B0008F9
:101C800070B5040004D094F84100002510B106E0BE
:101C9000012070BD84F84050204600F023F8242035
:101CA00084F841002068C16821F40051C1602046D9
:101CB00001F070F82068016921F490410161206809
:101CC000416921F02A0141612068C16841F4005155
:101CD000C1606564202084F8410084F84200656397
:101CE000002070BD2DE9F04186B0002400940194DD
:101CF0000294039406460368434F0220434903229B
:101D00004502BB4226D18B6943F480438B618B69CA
:101D100003F4804304938B6943F004038B61896966
:101D20003B4E01F0040104910102CDE90010039241
:101D300069463046FEF7E0FECDE90054694630467C
:101D40000294FEF7D9FE002211462520FFF730F855
:101D5000252054E02F4FBB4253D1CB6943F480235D
:101D6000CB61CB6903F4802304938B6943F00803B0
:101D70008B61896901F00801CDE90321CDE90050AB
:101D8000254D69462846FEF7B7FEE814CDE9000464
:101D9000694628460294FEF7AFFE214D1F484FF0DA
:101DA000800801C51020A5E811014FF4405745F8FF
:101DB00010491B486C61C5E90647FEF725FE08B1CE
:101DC000FEF7BEFCB5636E62154D14484435143001
:101DD000C5E90004C5E90248EF6120202C61C5E98E
:101DE00005402846FEF710FE08B1FEF7A9FCF56392
:101DF0000022114627206E62FEF7DAFF2720FEF749
:101E0000C9FF06B0BDE8F081003801400010024073
:101E10000008014000480040000C01401C00024046
:101E2000240A002090F84230202B01D00220704775
:101E300021B11AB10023036301F008B801207047F3
:101E4000704770472DE9F843044690F841009846E2
:101E500016460D46202802D00220BDE8F88385B141
:101E60007EB100206064212084F84100FEF734FF39
:101E7000A6848146E684A0682027B0F5805F02D062
:101E800003E00120E9E7206910B12E4600250EE0AD
:101E900000260CE08021204601F020F8A8B9C6B148
:101EA00016F8010B21684860E08C401EE084E08C4D
:101EB0004B464FF00002CDF800800028EAD14FF0E9
:101EC0004001204601F00AF840B184F84170032037
:101ED000C3E735F8020BC0F30800E3E784F841706C
:101EE0000020BAE770B5044690F84100202801D0E0
:101EF000022070BD49B342B32162A284E284002073
:101F00006064212384F84130A56B114BAB62A56B53
:101F1000104BEB62A56B104B2B63A36B58632568CA
:101F200013462A1DA06BFEF79DFD21686FF040004F
:101F300008602068143050E8001F41F0800140E83C
:101F40000012002AF5D1002070BD012070BD0000F4
:101F50001D2C00085F2C00082F2B000870477047CD
:101F6000FEE700000D4808B5416941F001014161FB
:101F70004069002200F00100009011460C20FEF79D
:101F800017FF0C20FEF706FF002211460D20FEF77A
:101F90000FFFBDE808400D20FEF7FCBE0010024018
:101FA00000B585B0002002901648816941F02001FB
:101FB0008161816901F020010491816941F004018E
:101FC0008161816901F004010491816941F0080196
:101FD00081618069694600F008000490202000902B
:101FE0000220019003900848FEF786FD07484168EB
:101FF00021F4406141F0E06141F40061416005B0CD
:1020000000BD000000100240000C01400000014033
:1020100010B596B000240F94109411941294139458
:102020001C2108A81494FEF777FA20216846FEF7D1
:1020300073FA29482749016041F61F41C0E901149C
:1020400042F20F71C0E9031444618461FFF7C2F9E1
:1020500008B1FEF775FB4FF480500F900FA91E4892
:10206000FFF784FA08B1FEF76BFB1B48FFF721FC72
:1020700008B1FEF765FB139413A917481494FFF7F2
:1020800075F908B1FEF75CFB6020CDE908040A94FD
:102090000B940C940D94002208A90F480E94FFF79E
:1020A000A2FB08B1FEF74CFB00944FF40050CDE9C1
:1020B0000440029401940394694607480794FFF78B
:1020C0002BF908B1FEF73CFB0348FFF757FB16B0AE
:1020D00010BD0000002C0140BC08002010B58AB0E3
:1020E000002407941C2168460894FEF715FA174847
:1020F0004FF08041016041F61F41C0E9011440F2F8
:10210000E731C0E903148461FFF7D3FB08B1FEF7A0
:1021100017FB079407A90D480894FFF727F908B1A2
:10212000FEF70EFB602000904FF4FA70CDE9010439
:102130000422694605480494FFF755FB08B1FEF7F1
:10214000FFFA0248FFF71AFB0AB010BD040900208D
:1021500010B586B0002417480094019402940394AB
:10216000049413490594016041F61F41C0E901142C
:102170006321C0E9031480218161FFF72BF908B1C5
:10218000FEF7DEFA4FF48050009069460948FFF7E9
:10219000EDF908B1FEF7D4FA049404A905480594B2
:1021A000FFF7E4F8002801D0FEF7CAFA06B010BD28
:1021B000000800404C0900200C4810B50A49016095
:1021C0004FF416514160002181600C22C160C0E9CA
:1021D00004128161C161FFF753FD002803D0BDE8FF
:1021E0001040FEF7ADBA10BD003801409409002040
:1021F0000C4810B50A4901604FF4E13141600021FB
:1022000081600C22C160C0E904128161C161FFF7E5
:1022100037FD002803D0BDE81040FEF791BA10BD8D
:1022200000480040DC090020FEE703460DE002788C
:102230002A2A03D0202A01D37A2A01D9FF20704705
:102240002C2A01D1491EC9B2401C0029EFD1C01A65
:10225000C0B2704738B50A4605460EA11046FEF7D3
:1022600025F904460921FFF7E0FFFF2805D02044A7
:10227000694600F00FFAC5F8630007212046FFF712
:10228000D4FFFF2805D02044694600F003FA85F802
:102290004F0038BD47474100F8B50A46064624A11D
:1022A0001046FEF703F905460221FFF7BEFFFF289F
:1022B00005D02844694600F0EDF986F85C0000245A
:1022C000E01CC1B22846FFF7B0FFFF280AD028441F
:1022D000694600F0DFF93119641CE4B281F850005E
:1022E0000C2CEDD30F212846FFF79FFFFF2805D0C8
:1022F0002844694600F0CEF9A6F85D001021284672
:10230000FFF793FFFF2805D02844694600F0C2F983
:10231000A6F85F0011212846FFF787FFFF2805D0A8
:102320002844694600F0B6F9A6F86100F8BD00003F
:10233000475341002DE9F84F0C4682464FF0000804
:1023400035A12046FEF7B2F80546C07903213038A2
:10235000C7B22846FFF769FFFF2805D02844694621
:1023600000F098F98AF80000002651E02AA12046E2
:10237000FEF79CF8044600254FF0040B0BEB85009C
:10238000C1B22046FFF751FFFF283ED020446946E6
:1023900000F080F908EB880202EB0A0989F80100D5
:1023A000052000EB8500C1B22046FFF73EFFFF2865
:1023B0002BD02044694600F06DF989F80200062010
:1023C00000EB8500C1B22046FFF72FFFFF281CD08D
:1023D0002044694600F05EF9A9F80300072000EBED
:1023E0008500C1B22046FFF720FFFF280DD0204412
:1023F000694600F04FF989F805006D1C08F10100ED
:10240000EDB200F0FF08042DB8D3761CF6B2641CC0
:10241000BE42ABD3BDE8F88F244750475356000067
:102420002DE9F8430A4604467FA11046FEF73EF820
:1024300005460121FFF7F9FE42F210764FF06408DD
:10244000FF281ED02844694600F024F907469DF86D
:1024500000100A2000F016F9B7FBF0F1B1FBF6F01E
:1024600084F841004046B1FBF0F2B2FBF0F308FB08
:10247000132284F84220B1FBF8F208FB121084F812
:10248000430003212846FFF7D0FEDFF8A091FF2884
:102490003BD02844694600F0FDF807469DF800004F
:1024A000801CC1B20A2000F0EDF8B7FBF0F06064C8
:1024B0009DF80000801CC1B20A2000F0E3F8B7FBD1
:1024C000F0F100FB117001F075F807469DF800006F
:1024D000C0F10500C1B20A2000F0D4F801F06AF89A
:1024E000394601F07BF8494600F082FF0746052196
:1024F0000A2000F0C7F8616C484301F05BF83946E8
:1025000000F014FF01F036F8606404212846FFF75C
:102510008CFEFF2802D0285C84F84800052128465C
:10252000FFF783FEFF283DD02844694600F0B2F84B
:1025300007469DF80000801CC1B20A2000F0A2F8F6
:10254000B7FBF0F044F8490F9DF80000801CC1B2C1
:102550000A2000F097F8B7FBF0F100FB117001F0D2
:1025600029F807469DF80000C0F10500C1B20A2015
:1025700000F088F801F01EF8394601F02FF84946BE
:1025800000F036FF074605210A2000F07BF821689D
:10259000484301F00FF8394600F0C8FE00F0EAFFAA
:1025A00044F8490906212846FFF73FFEFF2802D0DC
:1025B000285C84F84D0007212846FFF736FEFF28E7
:1025C00010D02844694600F065F800EB8000400018
:1025D00000F09BFD164A174B00F0AAFD00F068FDC5
:1025E000A4F8670009212846FFF71FFEFF2818D02E
:1025F0002844694600F04EF8B0FBF6F184F840102C
:102600004146B0FBF1F2B2FBF1F308FB132284F870
:102610003F20B0FBF8F208FB120000F5FA60A4F8C6
:102620003D00BDE8F8830000524D430000007042B9
:102630006F1283C0CAA1FD3F38B50A4604460FA1F8
:102640001046FDF733FF05460721FFF7EEFDFF2893
:1026500013D02844694600F01DF8A4F867009DF8DF
:102660000000032809D2C0F10300C1B20A2000F023
:1026700009F834F8671F4843208038BD2447505676
:10268000544700000246012000E05043491EC9B2F1
:10269000FBD270472DE9F04F4FF0000A8B46804681
:1026A000D14655465446564601782D2902D146F06A
:1026B0000206401C01782C2908D02A2906D02E2990
:1026C0000AD030390A290AD300252C46B00701D593
:1026D00008F10108002718E046F00106401CF10748
:1026E00002D0641CE4B201E06D1CEDB2401CDBE7DB
:1026F000E81B401EC1B20A20FFF7C4FF18F80710FC
:10270000303900FB01AA7F1CFFB2AF42F0D3052C89
:1027100000D905248BF8004000270EE0E01B401E86
:10272000C1B20A20FFF7AEFFEA1902EB08014978AF
:10273000303900FB01997F1CFFB2A742EED321463E
:102740000A20FFF79FFF0AFB0090B10700D5404227
:10275000BDE8F08FFEE770477047FEF7C3BA30B5AB
:102760008FB028216846FDF7D7FE14210AA8FDF78F
:10277000D3FE01210804CDE90010002402940225B3
:102780000491CDE907504FF4E01009906846FEF738
:102790001DFC08B172B6FEE70F20CDE90A054FF423
:1027A0008060CDE90C4002210AA80E94FEF732FBAE
:1027B000002801D072B6FEE70FB030BD70470000B0
:1027C0003EB52348FEF741FF224CE0683B2802DA81
:1027D000401CE0600FE00020E06021693B2902DA44
:1027E000491C216107E020616169172902DA491C4F
:1027F000616100E06061D4E9031017A28DE8070071
:10280000144A25A11C3229486369FDF7E7FC2749D2
:10281000A1F16400FDF75CFE2448643800F0E2FB9F
:102820000246A0600B4822A1001DFDF7D7FC094B12
:102830001E4A1B1D20A11046FDF7D0FC03B04FF629
:10284000FF73BDE83040642218491D48FFF7FABA0B
:10285000BC080020000000202E30302C412C3232E9
:1028600033372E3439363437342C4E2C313133351E
:10287000362E3038393531352C452C302E302C322F
:1028800032352E352C3233303532302C322E332C3B
:10289000572C412A00000000257325303264253072
:1028A000326425303264257300000000100B0020D4
:1028B0002530325800000000257325730000000009
:1028C000940900200148FEF7C0BE00000409002062
:1028D0000148FEF7BABE00004C090020F0B50268BE
:1028E000194B1A4C1A4D4FF08047984205D0B84208
:1028F00003D0A04201D0A84203D122F070064A685A
:102900003243984205D0B84203D0A04201D0A84239
:1029100003D122F44074CA6822434C6922F0800239
:10292000224302608A68C2620A688262984201D1C8
:1029300009690163012141610169C90703D0016986
:1029400021F001010161F0BD002C014000040040B4
:102950000008004010B501F01F030121046A9940EE
:102960008C430462016A9A401143016210BD10B5A4
:10297000846842EA032224F47F440A4322438260AB
:1029800010BD826822F070020A4342F007018160A4
:102990007047000030B5036A026A22F00102026249
:1029A0004268846924F073050C682C4323F0020507
:1029B0008B682B430A4DA8420BD123F00805CB6846
:1029C00022F440722B434D6923F0040315438A69B6
:1029D0002A434260846149684163036230BD00005C
:1029E000002C014030B5026A036A23F01003036231
:1029F000436884690D6824F4E64444EA05248D683C
:102A000022F0200242EA05120B4DA8420ED1CD68F9
:102A100022F0800242EA05124D6923F4406343EA42
:102A200085038D6922F0400243EA85034360846197
:102A300049688163026230BD002C014030B5036AF1
:102A4000026A22F4807202624268C46923F400734D
:102A500024F073050C682C438D6843EA05230C4D64
:102A6000A8420ED1CD6823F4006343EA05234D69E3
:102A700022F4405242EA05128D6923F4806342EA4F
:102A800005124260C4614968C163036230BD000041
:102A9000002C014030B5046A026A22F480520262BE
:102AA0004268C3690D6823F4E64343EA05238D6851
:102AB00024F4005444EA0534064DA84204D14D697B
:102AC00022F4804242EA85124260C361496801648F
:102AD000046230BD002C014010B5036A046A24F082
:102AE00001040462846924F0F00444EA021423F02F
:102AF0000A020A438461026210BD10B5036A046AC7
:102B000024F010040462846923F0A00324F47044C8
:102B100044EA023243EA01118261016210BD10B53C
:102B2000406A0021C185C184FEF772FF10BD70B5F7
:102B3000446A2068406994F84110C0F3C010002531
:102B4000212904D118B1E584204600F0B4F82068AA
:102B5000406994F84210C0F38010222904D118B1C2
:102B6000E585204600F080F8606C40F0100060645D
:102B70002046FEF74DFF70BD10B50146406A09685A
:102B800009684FF0000289062ED4C28501680C3115
:102B900051E8003F23F4807341E80034002CF5D164
:102BA0000168143151E8003F23F0010341E800348B
:102BB000002CF5D10168143151E8003F23F04003A7
:102BC00041E80034002CF5D1202180F84210016B3F
:102BD000012909D101680C3151E8003F23F01003AD
:102BE00041E80034002CF5D14263016B012902D089
:102BF000FFF726F910BD818DFEF709FF10BD10B556
:102C0000406A01214163016B012902D0FFF719F9E4
:102C100010BD818D4908FEF7FAFE10BD10B50146C2
:102C2000406A09680968890616D40021C1840168D0
:102C3000143151E8002F22F0800241E80023002BDC
:102C4000F5D101680C3151E8002F42F0400241E813
:102C50000023002BF5D110BDFFF780F910BD10B592
:102C6000406AFFF77CF910BD01680C3151E8002F74
:102C700022F4907241E80023002BF5D10168143151
:102C800051E8002F22F0010241E80023002BF5D18A
:102C9000016B012909D101680C3151E8002F22F0A4
:102CA000100241E80023002BF5D1202180F84210CA
:102CB00000210163704701680C3151E8002F22F0B8
:102CC000C00241E80023002BF5D1202180F84110FB
:102CD000704708B590F84210222901D0022008BDA3
:102CE00082684FF480539A4201D1016921B1816A0F
:102CF0009A421BD04AB10AE00268816A5268C2F364
:102D000008020A80816A891C08E0026972B10268BF
:102D1000526802F07F020A70816A491C8162C18D8B
:102D2000491E0904090CC18503D01BE002685268E2
:102D3000F1E70168CA6822F02002CA600168CA6827
:102D400022F48072CA6001684A6922F001024A6175
:102D5000202180F8421000214163026B012A03D038
:102D6000FFF76EF8002008BD016301680C3151E8DF
:102D7000002F22F0100241E80023002BF5D101685A
:102D80000A68D20602D50A6849680091818DFEF76B
:102D90003EFEE7E770B5044600680169E26821F489
:102DA0004051114301612169A068084361690843EA
:102DB0002168CA6841F20C639A430243CA602068E2
:102DC0004169A26921F44071114341611E492068A3
:102DD000884202D1FEF7C4F801E0FEF7B1F800EB3B
:102DE000C00101EB0012606864218000B2FBF0F3C7
:102DF000B3FBF1F36FF018067343B2FBF0F5B2FBCF
:102E0000F0F605EB8305322303EB0515B5FBF1F571
:102E1000B6FBF1F605F0F00505EB0615B2FBF0F692
:102E2000B2FBF0F0B0FBF1F06FF01802504306EB8C
:102E3000800003EB0010B0FBF1F0216800F00F0000
:102E40002844886070BD00000038014038B58162B8
:102E500004468285002013466064222284F84220C2
:102E6000E56B1B4AAA62E56B1A4AEA62E56B1A4AED
:102E70002A63E26B50630A462168E06B091DFDF787
:102E8000F1FD2068016840680090206948B1206821
:102E90000C3050E8001F41F4807140E80012002A15
:102EA000F5D12068143050E8001F41F0010140E8DE
:102EB0000012002AF5D12068143050E8001F41F0BC
:102EC000400140E80012002AF5D1002038BD000082
:102ED000792B0008FF2B00082F2B00082DE9F84361
:102EE000984617460D460446089E24E0701C22D0E2
:102EF000FDF7F2FEA0EB0800B0421AD8CEB1206870
:102F0000C168490717D5802D15D0402D13D0016811
:102F1000C94309070FD40168002540680090204686
:102F2000FFF7A2FE0820606484F840500120BDE84D
:102F3000F8830320FBE72068006835EA000004D02E
:102F40000020B842D2D00020F1E70120F9E70000CC
:102F50000148FEF75FBD00009409002070B51148DC
:102F6000FEF758FD0F4800680168C943C90615D42B
:102F700040680D4CC5B2608801040FD4B0F5006FF5
:102F80000DD20A4A00211268516210B90748FEF7B3
:102F9000A9FA074960880D54401C608070BD40F458
:102FA0000040FAE7DC090020000000204C09002066
:102FB00050000020FEE70907090E002804DB00F19D
:102FC000E02080F80014704700F00F0000F1E020CE
:102FD00080F8141D704730380A2801D2012070474C
:102FE0000020704730B54FF0FF3490B10B49427864
:102FF0000A7002228A6103E00D786B400B70521C4C
:10300000835C2A2B01D0002BF6D18A61805C2A28B0
:1030100001D0204630BD087830BD000000000020FF
:10302000FDF768FEFFF79BFBFEF7BAFFFEF79AFF7E
:10303000FFF7DEF8FFF7C0F8FFF750F8FEF7E8FFFC
:10304000FFF786F815480068C16841F02001C160AB
:103050004FF4006212491148FEF7E4FE1148FEF7F2
:1030600041FA1048FEF716FA00210E48FEF76CFCF4
:103070000D48FEF70FFA04210B48FEF765FC0B4CD8
:1030800000252088000405D50549258001F500604C
:10309000FDF758FB0120FDF71DFDF2E7DC090020DC
:1030A00050000020BC08002004090020020000207D
:1030B0004FEA1153A3F58063D3F11E03A8BFD3F1E8
:1030C000200C08DB4FF0004242EAC12252EA505283
:1030D00032FA03F0704709420BD4102BC4BF002012
:1030E000704703F5787CBCF1FF3F05D04FF0FF300F
:1030F00070474FF00000704770B500F0C3F800BF94
:103100004992248000207047F0E7B0FA80F310FA6B
:1031100003F10AD0C3F11D0303F580634FEA415068
:103120004FEA035202EBD12170474FF00000704785
:10313000DFF848C170B51CEA111E1EBF1CEA13154A
:103140009EEA0C0F95EA0C0F00F06F8081EA0304F1
:1031500023EA4C134EEAD47E21EA4C1141F480114B
:1031600043F48013AE44A1FB024CA0FB0365AEF117
:103170007F7E361955EB0C05A1FB034C4CF1000387
:10318000A0FB021C16EB0C06654153F1000309423B
:1031900018BF46F0010613F4007F0BD14FEA03314C
:1031A0004FEA0530340341EA155140EA16506FF0FA
:1031B00003020AE04FEAC3214FEAC520F40241EAC4
:1031C000555140EA56506FF0020202EB2E4201EBDD
:1031D000025585EACE710AD05FEA440C18BF24F08C
:1031E000004450F1000041F1000120EAD47040F2A7
:1031F000FE7C624500D270BDA84214BF4FF08044EF
:103200004FF04044002E08BF0024BEF1806FA8BFDD
:10321000A1F1C041BDE8704080F282804FF0000013
:1032200001F1C04101F0004170479EEA0C0F0CEA29
:10323000131518BF95EA0C0F06D04FF0000081EA75
:10324000030E0EF0004170BD00F01CF88900013E35
:1032500000F007B800F009B84FEA430C5FEA5C5C85
:1032600008D081EA030100F05BB84FEA410C5FEA45
:103270005C5CF6D14FF00000014970470000FF0789
:103280000000F87F0EF1020E2EF0030E5EF8046BC4
:10329000364205D4012A43EB030515F5001F12D869
:1032A000012841EB010C1CF5001F0CD80ED14FEA90
:1032B000D17C15F5001F0CEB4C0C0CF1020C08BF77
:1032C0004CEBD37C04E04FF0080C01E04FEAD37CD8
:1032D0000CEB4C0526FA05F606F00706B6F1040CD1
:1032E00006D20EEB860CBDE870404CF0010C604736
:1032F000DFE80CF0090B02024FF000414FF0000034
:10330000A1F5002170BD19461046012851EB0104BA
:1033100018BFD4F5001484BF002001F0004170BD37
:103320000808A0F500114FEA3101704790EA010F3B
:1033300048BF81F0004100F12482421A3CBF801A4C
:1033400089184FEAD0524FF07F4C1CEA410FA2EB94
:10335000D15318BF9CEA026F00F03B804FF0004C45
:103360004CEA00204CEA012121FA03FC10EB0C0C82
:103370001ED202F1FF325FEA1C2040EBC25038BF80
:1033800070471CF07F0F4FEA400C18BFBCF17F4F15
:1033900038BF7047C3F12003994008BF20F00100F7
:1033A000BCF17F4F38BF7047A0F1C04000F0DDB9DD
:1033B0004FEA3C00000A40EBC25028BF1CF0FF0F50
:1033C0004FEA400CE6D018BFBCF17F4F38BF7047C2
:1033D000EAE79CEA026F05D010EA5C0F08BF00F034
:1033E0000040704710B500F07AF900BF64FBBE3EA4
:1033F0004FF47F0C1CEAD0121EBF1CEAD11392EAD4
:103400000C0F93EA0C0F00F0858090EA010F48BF83
:1034100042F4807240F4000C41F400002CF07F4133
:1034200020F07F4000B58142A2EB03020FF2081C9E
:10343000ACEB504EC0F100009EF800E04FEA4E0E9B
:1034400000FB0EFC38BF49004FEA2C1C02F5FA02C3
:103450000CFB0EF34FEACE1E4FEA112C4FEAC121AE
:103460000EEB635E42EB22420EFB0CFC4FEA1C5358
:1034700000FB03114FEA112C4FEA01310EFB0CFC4B
:103480004FEADC4C00FB0C11C14228BF09184CEB81
:1034900003335DF804EB10EB410143EBC250B2F58E
:1034A0007C0F38BF704729D512F0F00F1CBF00F118
:1034B000C04000F000407047008182838485868789
:1034C00088898B8C8D8E8F919293959697999A9CE3
:1034D0009D9FA0A2A3A5A7A8AAACAEB0B2B3B5B752
:1034E000B9BCBEC0C2C5C7C9CCCED1D4D7D9DCDF28
:1034F000E2E6E9ECF0F3F7FAFE0000004FEA400CD8
:103500000CF1807CBCF17E4F28BF7047B0F1C04009
:1035100000F02BB990EA010F0CEAD11348BF42F436
:103520008072624538BF634507D213F47F0F16D00F
:1035300080EA010000F00040704710B500F0CFF8BD
:10354000097EFC3E00F005B880EA010000F0004072
:10355000704780EA010000F0004000F006B912F464
:103560007F0F04BF0248704780EA010000F0FDB8F9
:103570000000C07FC10DD1F19E0206DB4FEA00239F
:1035800043F0004323FA02F07047004207D54FEAA8
:103590004001B1F1FE4F02D24FF00000704710B56C
:1035A00000F09DF849922480002070476FEA2000C7
:1035B00070470000B0FA80F310FA03F2C3F19D03E4
:1035C0000AD0D90501EB1220530638BF704700F12D
:1035D000010008BF20F00100704700004FF47F0C8D
:1035E0001CEAD0121EBF1CEAD11392EA0C0F93EA18
:1035F0000C0F00F0478090EA010F48BF42F4807240
:103600004FF0004C4CEA00204CEA012102EB03028F
:10361000A0FB0113A2F50002002918BF43F001032B
:103620005B0028BF4FEA330342EB22425FEA132CD0
:103630004CEBC2502EBFBCEB436FB2F57C0F704712
:103640004FEA036CBCF1004F08BF20F00100B2F557
:103650007C0F38BF70470BD582F0FF0212F5803F18
:10366000C8BF704700F1C040D8BF00F000407047AD
:1036700000F5000C5FEA4C0C48BF7047B0F1C04049
:1036800000F073B890EA010F0CEAD11348BF42F47E
:103690008072624538BF634504D280EA010000F0C1
:1036A0000040704710B500F01AF800BF8900013ED5
:1036B00000F007B800F009B85FEA410C5FEA1C6C43
:1036C00008D080EA010000F050B85FEA400C5FEAE1
:1036D0001C6CF6D14FF00040A0F5800070470EF151
:1036E000020E2EF0030E5EF8044B244204D44FEA7F
:1036F0004102B2F17F4F11D84FEA4003B3F17F4F3F
:103700000CD80ED14FEAD07CB2F17F4F0CEB4C0CB1
:103710000CF1020C08BF4CEBD17C04E04FF0080C1C
:1037200001E04FEAD17C0CEB4C0324FA03F404F0E3
:103730000704B4F1040C06D20EEB840CBDE8104073
:103740004CF0010C6047DFE80CF0070802024FF074
:103750000040A0F5800010BD0846420018BFD2F11D
:10376000807288BF00F0004010BDFF2141EAD050B8
:10377000C005704790EA010F48BF81F000413FF556
:10378000DCAD421A04D882F00042A0EB02001144E2
:103790004FEAD0524FF07F4C1CEA410FA2EBD153BD
:1037A00018BF9CEA026F4AD04FF0004C4CEA002050
:1037B0004CEA012121FA03FCB0EB0C0C0FD412F0FF
:1037C000FE0F36D05FEA4C001DD5001240EBC25010
:1037D00038BF70471CF03F0F18BF70470BE0A2F1D5
:1037E00001025FEA1C2040EBC25038BF70471CF05A
:1037F0007F0F18BF7047C3F12003994014BF401ECC
:1038000020F00100704780084FEA122308BF70477C
:10381000B0FA80FCA2EB0C02CCF1280C60FA0CF0A0
:1038200093EA122F04BF00EBC25070474FEAC370F7
:103830007047130A5FEADC1008BF7047F6E79CEA9E
:10384000026F04D010EA5C0F08BF0020704710B56B
:10385000FFF745FF40DFF63E81F000407047010270
:1038600002030405060708090A0B0C0D0E0F1010C1
:103870000000000000000000010203040607080920
:103880000000000001020304303132333435363792
:103890003839414243444546403058003031323394
:1038A0003435363738396162636465664030780094
:1038B00004000008000000000000000200010000F9
:1038C00010000000E4380008000000205000000054
:1038D000280100083439000850000020A011000021
:1038E000440100080000000000000000000000008B
:1038F00000000000000000000000000000000000C8
:10390000244750524D432C000100000010000000DD
:103910000000000000127A00F4F5F6F7F8F9FAFB5F
:10392000FCFDFEF1000102030405060708090A0B6D
:043930000C00000087
:04000005080000ED02
:00000001FF
